{
	"contracts/oracle.sol": {
		"Oracle": {
			"abi": [
				{
					"inputs": [],
					"stateMutability": "nonpayable",
					"type": "constructor"
				},
				{
					"anonymous": false,
					"inputs": [
						{
							"indexed": false,
							"internalType": "uint256",
							"name": "price0CumulativeLast",
							"type": "uint256"
						},
						{
							"indexed": false,
							"internalType": "uint256",
							"name": "price1CumulativeLast",
							"type": "uint256"
						}
					],
					"name": "Updated",
					"type": "event"
				},
				{
					"inputs": [
						{
							"internalType": "address",
							"name": "",
							"type": "address"
						},
						{
							"internalType": "uint256",
							"name": "amountIn",
							"type": "uint256"
						}
					],
					"name": "consult",
					"outputs": [
						{
							"internalType": "uint256",
							"name": "",
							"type": "uint256"
						}
					],
					"stateMutability": "view",
					"type": "function"
				},
				{
					"inputs": [],
					"name": "price",
					"outputs": [
						{
							"internalType": "uint256",
							"name": "",
							"type": "uint256"
						}
					],
					"stateMutability": "view",
					"type": "function"
				},
				{
					"inputs": [
						{
							"internalType": "uint256",
							"name": "_price",
							"type": "uint256"
						}
					],
					"name": "setPrice",
					"outputs": [],
					"stateMutability": "nonpayable",
					"type": "function"
				}
			],
			"devdoc": {
				"kind": "dev",
				"methods": {},
				"version": 1
			},
			"evm": {
				"assembly": "    /* \"contracts/oracle.sol\":126:553  contract Oracle {... */\n  mstore(0x40, 0x80)\n    /* \"contracts/oracle.sol\":209:230  constructor() {... */\n  callvalue\n  dup1\n  iszero\n  tag_1\n  jumpi\n  0x00\n  dup1\n  revert\ntag_1:\n  pop\n    /* \"contracts/oracle.sol\":126:553  contract Oracle {... */\n  dataSize(sub_0)\n  dup1\n  dataOffset(sub_0)\n  0x00\n  codecopy\n  0x00\n  return\nstop\n\nsub_0: assembly {\n        /* \"contracts/oracle.sol\":126:553  contract Oracle {... */\n      mstore(0x40, 0x80)\n      callvalue\n      dup1\n      iszero\n      tag_1\n      jumpi\n      0x00\n      dup1\n      revert\n    tag_1:\n      pop\n      jumpi(tag_2, lt(calldatasize, 0x04))\n      shr(0xe0, calldataload(0x00))\n      dup1\n      0x3ddac953\n      eq\n      tag_3\n      jumpi\n      dup1\n      0x91b7f5ed\n      eq\n      tag_4\n      jumpi\n      dup1\n      0xa035b1fe\n      eq\n      tag_5\n      jumpi\n    tag_2:\n      0x00\n      dup1\n      revert\n        /* \"contracts/oracle.sol\":314:471  function consult(address, uint256 amountIn)... */\n    tag_3:\n      tag_6\n      0x04\n      dup1\n      calldatasize\n      sub\n      dup2\n      add\n      swap1\n      tag_7\n      swap2\n      swap1\n      tag_8\n      jump\t// in\n    tag_7:\n      tag_9\n      jump\t// in\n    tag_6:\n      mload(0x40)\n      tag_10\n      swap2\n      swap1\n      tag_11\n      jump\t// in\n    tag_10:\n      mload(0x40)\n      dup1\n      swap2\n      sub\n      swap1\n      return\n        /* \"contracts/oracle.sol\":236:308  function setPrice(uint256 _price) public {... */\n    tag_4:\n      tag_12\n      0x04\n      dup1\n      calldatasize\n      sub\n      dup2\n      add\n      swap1\n      tag_13\n      swap2\n      swap1\n      tag_14\n      jump\t// in\n    tag_13:\n      tag_15\n      jump\t// in\n    tag_12:\n      stop\n        /* \"contracts/oracle.sol\":181:201  uint256 public price */\n    tag_5:\n      tag_16\n      tag_17\n      jump\t// in\n    tag_16:\n      mload(0x40)\n      tag_18\n      swap2\n      swap1\n      tag_11\n      jump\t// in\n    tag_18:\n      mload(0x40)\n      dup1\n      swap2\n      sub\n      swap1\n      return\n        /* \"contracts/oracle.sol\":314:471  function consult(address, uint256 amountIn)... */\n    tag_9:\n        /* \"contracts/oracle.sol\":405:412  uint256 */\n      0x00\n        /* \"contracts/oracle.sol\":435:464  price.mul(amountIn).div(1e18) */\n      tag_20\n        /* \"contracts/oracle.sol\":459:463  1e18 */\n      0x0de0b6b3a7640000\n        /* \"contracts/oracle.sol\":435:454  price.mul(amountIn) */\n      tag_21\n        /* \"contracts/oracle.sol\":445:453  amountIn */\n      dup5\n        /* \"contracts/oracle.sol\":435:440  price */\n      sload(0x00)\n        /* \"contracts/oracle.sol\":435:444  price.mul */\n      tag_22\n      swap1\n        /* \"contracts/oracle.sol\":435:454  price.mul(amountIn) */\n      swap2\n      swap1\n      0xffffffff\n      and\n      jump\t// in\n    tag_21:\n        /* \"contracts/oracle.sol\":435:458  price.mul(amountIn).div */\n      tag_23\n      swap1\n        /* \"contracts/oracle.sol\":435:464  price.mul(amountIn).div(1e18) */\n      swap2\n      swap1\n      0xffffffff\n      and\n      jump\t// in\n    tag_20:\n        /* \"contracts/oracle.sol\":428:464  return price.mul(amountIn).div(1e18) */\n      swap1\n      pop\n        /* \"contracts/oracle.sol\":314:471  function consult(address, uint256 amountIn)... */\n      swap3\n      swap2\n      pop\n      pop\n      jump\t// out\n        /* \"contracts/oracle.sol\":236:308  function setPrice(uint256 _price) public {... */\n    tag_15:\n        /* \"contracts/oracle.sol\":295:301  _price */\n      dup1\n        /* \"contracts/oracle.sol\":287:292  price */\n      0x00\n        /* \"contracts/oracle.sol\":287:301  price = _price */\n      dup2\n      swap1\n      sstore\n      pop\n        /* \"contracts/oracle.sol\":236:308  function setPrice(uint256 _price) public {... */\n      pop\n      jump\t// out\n        /* \"contracts/oracle.sol\":181:201  uint256 public price */\n    tag_17:\n      sload(0x00)\n      dup2\n      jump\t// out\n        /* \"@openzeppelin/contracts/utils/math/SafeMath.sol\":3465:3561  function mul(uint256 a, uint256 b) internal pure returns (uint256) {... */\n    tag_22:\n        /* \"@openzeppelin/contracts/utils/math/SafeMath.sol\":3523:3530  uint256 */\n      0x00\n        /* \"@openzeppelin/contracts/utils/math/SafeMath.sol\":3553:3554  b */\n      dup2\n        /* \"@openzeppelin/contracts/utils/math/SafeMath.sol\":3549:3550  a */\n      dup4\n        /* \"@openzeppelin/contracts/utils/math/SafeMath.sol\":3549:3554  a * b */\n      tag_26\n      swap2\n      swap1\n      tag_27\n      jump\t// in\n    tag_26:\n        /* \"@openzeppelin/contracts/utils/math/SafeMath.sol\":3542:3554  return a * b */\n      swap1\n      pop\n        /* \"@openzeppelin/contracts/utils/math/SafeMath.sol\":3465:3561  function mul(uint256 a, uint256 b) internal pure returns (uint256) {... */\n      swap3\n      swap2\n      pop\n      pop\n      jump\t// out\n        /* \"@openzeppelin/contracts/utils/math/SafeMath.sol\":3850:3946  function div(uint256 a, uint256 b) internal pure returns (uint256) {... */\n    tag_23:\n        /* \"@openzeppelin/contracts/utils/math/SafeMath.sol\":3908:3915  uint256 */\n      0x00\n        /* \"@openzeppelin/contracts/utils/math/SafeMath.sol\":3938:3939  b */\n      dup2\n        /* \"@openzeppelin/contracts/utils/math/SafeMath.sol\":3934:3935  a */\n      dup4\n        /* \"@openzeppelin/contracts/utils/math/SafeMath.sol\":3934:3939  a / b */\n      tag_29\n      swap2\n      swap1\n      tag_30\n      jump\t// in\n    tag_29:\n        /* \"@openzeppelin/contracts/utils/math/SafeMath.sol\":3927:3939  return a / b */\n      swap1\n      pop\n        /* \"@openzeppelin/contracts/utils/math/SafeMath.sol\":3850:3946  function div(uint256 a, uint256 b) internal pure returns (uint256) {... */\n      swap3\n      swap2\n      pop\n      pop\n      jump\t// out\n        /* \"#utility.yul\":88:205   */\n    tag_32:\n        /* \"#utility.yul\":197:198   */\n      0x00\n        /* \"#utility.yul\":194:195   */\n      dup1\n        /* \"#utility.yul\":187:199   */\n      revert\n        /* \"#utility.yul\":334:460   */\n    tag_34:\n        /* \"#utility.yul\":371:378   */\n      0x00\n        /* \"#utility.yul\":411:453   */\n      0xffffffffffffffffffffffffffffffffffffffff\n        /* \"#utility.yul\":404:409   */\n      dup3\n        /* \"#utility.yul\":400:454   */\n      and\n        /* \"#utility.yul\":389:454   */\n      swap1\n      pop\n        /* \"#utility.yul\":334:460   */\n      swap2\n      swap1\n      pop\n      jump\t// out\n        /* \"#utility.yul\":466:562   */\n    tag_35:\n        /* \"#utility.yul\":503:510   */\n      0x00\n        /* \"#utility.yul\":532:556   */\n      tag_50\n        /* \"#utility.yul\":550:555   */\n      dup3\n        /* \"#utility.yul\":532:556   */\n      tag_34\n      jump\t// in\n    tag_50:\n        /* \"#utility.yul\":521:556   */\n      swap1\n      pop\n        /* \"#utility.yul\":466:562   */\n      swap2\n      swap1\n      pop\n      jump\t// out\n        /* \"#utility.yul\":568:690   */\n    tag_36:\n        /* \"#utility.yul\":641:665   */\n      tag_52\n        /* \"#utility.yul\":659:664   */\n      dup2\n        /* \"#utility.yul\":641:665   */\n      tag_35\n      jump\t// in\n    tag_52:\n        /* \"#utility.yul\":634:639   */\n      dup2\n        /* \"#utility.yul\":631:666   */\n      eq\n        /* \"#utility.yul\":621:684   */\n      tag_53\n      jumpi\n        /* \"#utility.yul\":680:681   */\n      0x00\n        /* \"#utility.yul\":677:678   */\n      dup1\n        /* \"#utility.yul\":670:682   */\n      revert\n        /* \"#utility.yul\":621:684   */\n    tag_53:\n        /* \"#utility.yul\":568:690   */\n      pop\n      jump\t// out\n        /* \"#utility.yul\":696:835   */\n    tag_37:\n        /* \"#utility.yul\":742:747   */\n      0x00\n        /* \"#utility.yul\":780:786   */\n      dup2\n        /* \"#utility.yul\":767:787   */\n      calldataload\n        /* \"#utility.yul\":758:787   */\n      swap1\n      pop\n        /* \"#utility.yul\":796:829   */\n      tag_55\n        /* \"#utility.yul\":823:828   */\n      dup2\n        /* \"#utility.yul\":796:829   */\n      tag_36\n      jump\t// in\n    tag_55:\n        /* \"#utility.yul\":696:835   */\n      swap3\n      swap2\n      pop\n      pop\n      jump\t// out\n        /* \"#utility.yul\":841:918   */\n    tag_38:\n        /* \"#utility.yul\":878:885   */\n      0x00\n        /* \"#utility.yul\":907:912   */\n      dup2\n        /* \"#utility.yul\":896:912   */\n      swap1\n      pop\n        /* \"#utility.yul\":841:918   */\n      swap2\n      swap1\n      pop\n      jump\t// out\n        /* \"#utility.yul\":924:1046   */\n    tag_39:\n        /* \"#utility.yul\":997:1021   */\n      tag_58\n        /* \"#utility.yul\":1015:1020   */\n      dup2\n        /* \"#utility.yul\":997:1021   */\n      tag_38\n      jump\t// in\n    tag_58:\n        /* \"#utility.yul\":990:995   */\n      dup2\n        /* \"#utility.yul\":987:1022   */\n      eq\n        /* \"#utility.yul\":977:1040   */\n      tag_59\n      jumpi\n        /* \"#utility.yul\":1036:1037   */\n      0x00\n        /* \"#utility.yul\":1033:1034   */\n      dup1\n        /* \"#utility.yul\":1026:1038   */\n      revert\n        /* \"#utility.yul\":977:1040   */\n    tag_59:\n        /* \"#utility.yul\":924:1046   */\n      pop\n      jump\t// out\n        /* \"#utility.yul\":1052:1191   */\n    tag_40:\n        /* \"#utility.yul\":1098:1103   */\n      0x00\n        /* \"#utility.yul\":1136:1142   */\n      dup2\n        /* \"#utility.yul\":1123:1143   */\n      calldataload\n        /* \"#utility.yul\":1114:1143   */\n      swap1\n      pop\n        /* \"#utility.yul\":1152:1185   */\n      tag_61\n        /* \"#utility.yul\":1179:1184   */\n      dup2\n        /* \"#utility.yul\":1152:1185   */\n      tag_39\n      jump\t// in\n    tag_61:\n        /* \"#utility.yul\":1052:1191   */\n      swap3\n      swap2\n      pop\n      pop\n      jump\t// out\n        /* \"#utility.yul\":1197:1671   */\n    tag_8:\n        /* \"#utility.yul\":1265:1271   */\n      0x00\n        /* \"#utility.yul\":1273:1279   */\n      dup1\n        /* \"#utility.yul\":1322:1324   */\n      0x40\n        /* \"#utility.yul\":1310:1319   */\n      dup4\n        /* \"#utility.yul\":1301:1308   */\n      dup6\n        /* \"#utility.yul\":1297:1320   */\n      sub\n        /* \"#utility.yul\":1293:1325   */\n      slt\n        /* \"#utility.yul\":1290:1409   */\n      iszero\n      tag_63\n      jumpi\n        /* \"#utility.yul\":1328:1407   */\n      tag_64\n      tag_32\n      jump\t// in\n    tag_64:\n        /* \"#utility.yul\":1290:1409   */\n    tag_63:\n        /* \"#utility.yul\":1448:1449   */\n      0x00\n        /* \"#utility.yul\":1473:1526   */\n      tag_65\n        /* \"#utility.yul\":1518:1525   */\n      dup6\n        /* \"#utility.yul\":1509:1515   */\n      dup3\n        /* \"#utility.yul\":1498:1507   */\n      dup7\n        /* \"#utility.yul\":1494:1516   */\n      add\n        /* \"#utility.yul\":1473:1526   */\n      tag_37\n      jump\t// in\n    tag_65:\n        /* \"#utility.yul\":1463:1526   */\n      swap3\n      pop\n        /* \"#utility.yul\":1419:1536   */\n      pop\n        /* \"#utility.yul\":1575:1577   */\n      0x20\n        /* \"#utility.yul\":1601:1654   */\n      tag_66\n        /* \"#utility.yul\":1646:1653   */\n      dup6\n        /* \"#utility.yul\":1637:1643   */\n      dup3\n        /* \"#utility.yul\":1626:1635   */\n      dup7\n        /* \"#utility.yul\":1622:1644   */\n      add\n        /* \"#utility.yul\":1601:1654   */\n      tag_40\n      jump\t// in\n    tag_66:\n        /* \"#utility.yul\":1591:1654   */\n      swap2\n      pop\n        /* \"#utility.yul\":1546:1664   */\n      pop\n        /* \"#utility.yul\":1197:1671   */\n      swap3\n      pop\n      swap3\n      swap1\n      pop\n      jump\t// out\n        /* \"#utility.yul\":1677:1795   */\n    tag_41:\n        /* \"#utility.yul\":1764:1788   */\n      tag_68\n        /* \"#utility.yul\":1782:1787   */\n      dup2\n        /* \"#utility.yul\":1764:1788   */\n      tag_38\n      jump\t// in\n    tag_68:\n        /* \"#utility.yul\":1759:1762   */\n      dup3\n        /* \"#utility.yul\":1752:1789   */\n      mstore\n        /* \"#utility.yul\":1677:1795   */\n      pop\n      pop\n      jump\t// out\n        /* \"#utility.yul\":1801:2023   */\n    tag_11:\n        /* \"#utility.yul\":1894:1898   */\n      0x00\n        /* \"#utility.yul\":1932:1934   */\n      0x20\n        /* \"#utility.yul\":1921:1930   */\n      dup3\n        /* \"#utility.yul\":1917:1935   */\n      add\n        /* \"#utility.yul\":1909:1935   */\n      swap1\n      pop\n        /* \"#utility.yul\":1945:2016   */\n      tag_70\n        /* \"#utility.yul\":2013:2014   */\n      0x00\n        /* \"#utility.yul\":2002:2011   */\n      dup4\n        /* \"#utility.yul\":1998:2015   */\n      add\n        /* \"#utility.yul\":1989:1995   */\n      dup5\n        /* \"#utility.yul\":1945:2016   */\n      tag_41\n      jump\t// in\n    tag_70:\n        /* \"#utility.yul\":1801:2023   */\n      swap3\n      swap2\n      pop\n      pop\n      jump\t// out\n        /* \"#utility.yul\":2029:2358   */\n    tag_14:\n        /* \"#utility.yul\":2088:2094   */\n      0x00\n        /* \"#utility.yul\":2137:2139   */\n      0x20\n        /* \"#utility.yul\":2125:2134   */\n      dup3\n        /* \"#utility.yul\":2116:2123   */\n      dup5\n        /* \"#utility.yul\":2112:2135   */\n      sub\n        /* \"#utility.yul\":2108:2140   */\n      slt\n        /* \"#utility.yul\":2105:2224   */\n      iszero\n      tag_72\n      jumpi\n        /* \"#utility.yul\":2143:2222   */\n      tag_73\n      tag_32\n      jump\t// in\n    tag_73:\n        /* \"#utility.yul\":2105:2224   */\n    tag_72:\n        /* \"#utility.yul\":2263:2264   */\n      0x00\n        /* \"#utility.yul\":2288:2341   */\n      tag_74\n        /* \"#utility.yul\":2333:2340   */\n      dup5\n        /* \"#utility.yul\":2324:2330   */\n      dup3\n        /* \"#utility.yul\":2313:2322   */\n      dup6\n        /* \"#utility.yul\":2309:2331   */\n      add\n        /* \"#utility.yul\":2288:2341   */\n      tag_40\n      jump\t// in\n    tag_74:\n        /* \"#utility.yul\":2278:2341   */\n      swap2\n      pop\n        /* \"#utility.yul\":2234:2351   */\n      pop\n        /* \"#utility.yul\":2029:2358   */\n      swap3\n      swap2\n      pop\n      pop\n      jump\t// out\n        /* \"#utility.yul\":2364:2544   */\n    tag_42:\n        /* \"#utility.yul\":2412:2489   */\n      0x4e487b7100000000000000000000000000000000000000000000000000000000\n        /* \"#utility.yul\":2409:2410   */\n      0x00\n        /* \"#utility.yul\":2402:2490   */\n      mstore\n        /* \"#utility.yul\":2509:2513   */\n      0x11\n        /* \"#utility.yul\":2506:2507   */\n      0x04\n        /* \"#utility.yul\":2499:2514   */\n      mstore\n        /* \"#utility.yul\":2533:2537   */\n      0x24\n        /* \"#utility.yul\":2530:2531   */\n      0x00\n        /* \"#utility.yul\":2523:2538   */\n      revert\n        /* \"#utility.yul\":2550:2960   */\n    tag_27:\n        /* \"#utility.yul\":2590:2597   */\n      0x00\n        /* \"#utility.yul\":2613:2633   */\n      tag_77\n        /* \"#utility.yul\":2631:2632   */\n      dup3\n        /* \"#utility.yul\":2613:2633   */\n      tag_38\n      jump\t// in\n    tag_77:\n        /* \"#utility.yul\":2608:2633   */\n      swap2\n      pop\n        /* \"#utility.yul\":2647:2667   */\n      tag_78\n        /* \"#utility.yul\":2665:2666   */\n      dup4\n        /* \"#utility.yul\":2647:2667   */\n      tag_38\n      jump\t// in\n    tag_78:\n        /* \"#utility.yul\":2642:2667   */\n      swap3\n      pop\n        /* \"#utility.yul\":2702:2703   */\n      dup3\n        /* \"#utility.yul\":2699:2700   */\n      dup3\n        /* \"#utility.yul\":2695:2704   */\n      mul\n        /* \"#utility.yul\":2724:2754   */\n      tag_79\n        /* \"#utility.yul\":2742:2753   */\n      dup2\n        /* \"#utility.yul\":2724:2754   */\n      tag_38\n      jump\t// in\n    tag_79:\n        /* \"#utility.yul\":2713:2754   */\n      swap2\n      pop\n        /* \"#utility.yul\":2903:2904   */\n      dup3\n        /* \"#utility.yul\":2894:2901   */\n      dup3\n        /* \"#utility.yul\":2890:2905   */\n      div\n        /* \"#utility.yul\":2887:2888   */\n      dup5\n        /* \"#utility.yul\":2884:2906   */\n      eq\n        /* \"#utility.yul\":2864:2865   */\n      dup4\n        /* \"#utility.yul\":2857:2866   */\n      iszero\n        /* \"#utility.yul\":2837:2920   */\n      or\n        /* \"#utility.yul\":2814:2953   */\n      tag_80\n      jumpi\n        /* \"#utility.yul\":2933:2951   */\n      tag_81\n      tag_42\n      jump\t// in\n    tag_81:\n        /* \"#utility.yul\":2814:2953   */\n    tag_80:\n        /* \"#utility.yul\":2598:2960   */\n      pop\n        /* \"#utility.yul\":2550:2960   */\n      swap3\n      swap2\n      pop\n      pop\n      jump\t// out\n        /* \"#utility.yul\":2966:3146   */\n    tag_43:\n        /* \"#utility.yul\":3014:3091   */\n      0x4e487b7100000000000000000000000000000000000000000000000000000000\n        /* \"#utility.yul\":3011:3012   */\n      0x00\n        /* \"#utility.yul\":3004:3092   */\n      mstore\n        /* \"#utility.yul\":3111:3115   */\n      0x12\n        /* \"#utility.yul\":3108:3109   */\n      0x04\n        /* \"#utility.yul\":3101:3116   */\n      mstore\n        /* \"#utility.yul\":3135:3139   */\n      0x24\n        /* \"#utility.yul\":3132:3133   */\n      0x00\n        /* \"#utility.yul\":3125:3140   */\n      revert\n        /* \"#utility.yul\":3152:3337   */\n    tag_30:\n        /* \"#utility.yul\":3192:3193   */\n      0x00\n        /* \"#utility.yul\":3209:3229   */\n      tag_84\n        /* \"#utility.yul\":3227:3228   */\n      dup3\n        /* \"#utility.yul\":3209:3229   */\n      tag_38\n      jump\t// in\n    tag_84:\n        /* \"#utility.yul\":3204:3229   */\n      swap2\n      pop\n        /* \"#utility.yul\":3243:3263   */\n      tag_85\n        /* \"#utility.yul\":3261:3262   */\n      dup4\n        /* \"#utility.yul\":3243:3263   */\n      tag_38\n      jump\t// in\n    tag_85:\n        /* \"#utility.yul\":3238:3263   */\n      swap3\n      pop\n        /* \"#utility.yul\":3282:3283   */\n      dup3\n        /* \"#utility.yul\":3272:3307   */\n      tag_86\n      jumpi\n        /* \"#utility.yul\":3287:3305   */\n      tag_87\n      tag_43\n      jump\t// in\n    tag_87:\n        /* \"#utility.yul\":3272:3307   */\n    tag_86:\n        /* \"#utility.yul\":3329:3330   */\n      dup3\n        /* \"#utility.yul\":3326:3327   */\n      dup3\n        /* \"#utility.yul\":3322:3331   */\n      div\n        /* \"#utility.yul\":3317:3331   */\n      swap1\n      pop\n        /* \"#utility.yul\":3152:3337   */\n      swap3\n      swap2\n      pop\n      pop\n      jump\t// out\n\n    auxdata: 0xa26469706673582212205240eafbd091bbe12b9ae058aa2ff0f891a01cb2d3c756376b2cede978f68e0464736f6c634300081a0033\n}\n",
				"bytecode": {
					"linkReferences": {},
					"object": "6080604052348015600e575f80fd5b5061033f8061001c5f395ff3fe608060405234801561000f575f80fd5b506004361061003f575f3560e01c80633ddac9531461004357806391b7f5ed14610073578063a035b1fe1461008f575b5f80fd5b61005d600480360381019061005891906101ad565b6100ad565b60405161006a91906101fa565b60405180910390f35b61008d60048036038101906100889190610213565b6100e4565b005b6100976100ed565b6040516100a491906101fa565b60405180910390f35b5f6100dc670de0b6b3a76400006100ce845f546100f290919063ffffffff16565b61010790919063ffffffff16565b905092915050565b805f8190555050565b5f5481565b5f81836100ff919061026b565b905092915050565b5f818361011491906102d9565b905092915050565b5f80fd5b5f73ffffffffffffffffffffffffffffffffffffffff82169050919050565b5f61014982610120565b9050919050565b6101598161013f565b8114610163575f80fd5b50565b5f8135905061017481610150565b92915050565b5f819050919050565b61018c8161017a565b8114610196575f80fd5b50565b5f813590506101a781610183565b92915050565b5f80604083850312156101c3576101c261011c565b5b5f6101d085828601610166565b92505060206101e185828601610199565b9150509250929050565b6101f48161017a565b82525050565b5f60208201905061020d5f8301846101eb565b92915050565b5f602082840312156102285761022761011c565b5b5f61023584828501610199565b91505092915050565b7f4e487b71000000000000000000000000000000000000000000000000000000005f52601160045260245ffd5b5f6102758261017a565b91506102808361017a565b925082820261028e8161017a565b915082820484148315176102a5576102a461023e565b5b5092915050565b7f4e487b71000000000000000000000000000000000000000000000000000000005f52601260045260245ffd5b5f6102e38261017a565b91506102ee8361017a565b9250826102fe576102fd6102ac565b5b82820490509291505056fea26469706673582212205240eafbd091bbe12b9ae058aa2ff0f891a01cb2d3c756376b2cede978f68e0464736f6c634300081a0033",
					"opcodes": "PUSH1 0x80 PUSH1 0x40 MSTORE CALLVALUE DUP1 ISZERO PUSH1 0xE JUMPI PUSH0 DUP1 REVERT JUMPDEST POP PUSH2 0x33F DUP1 PUSH2 0x1C PUSH0 CODECOPY PUSH0 RETURN INVALID PUSH1 0x80 PUSH1 0x40 MSTORE CALLVALUE DUP1 ISZERO PUSH2 0xF JUMPI PUSH0 DUP1 REVERT JUMPDEST POP PUSH1 0x4 CALLDATASIZE LT PUSH2 0x3F JUMPI PUSH0 CALLDATALOAD PUSH1 0xE0 SHR DUP1 PUSH4 0x3DDAC953 EQ PUSH2 0x43 JUMPI DUP1 PUSH4 0x91B7F5ED EQ PUSH2 0x73 JUMPI DUP1 PUSH4 0xA035B1FE EQ PUSH2 0x8F JUMPI JUMPDEST PUSH0 DUP1 REVERT JUMPDEST PUSH2 0x5D PUSH1 0x4 DUP1 CALLDATASIZE SUB DUP2 ADD SWAP1 PUSH2 0x58 SWAP2 SWAP1 PUSH2 0x1AD JUMP JUMPDEST PUSH2 0xAD JUMP JUMPDEST PUSH1 0x40 MLOAD PUSH2 0x6A SWAP2 SWAP1 PUSH2 0x1FA JUMP JUMPDEST PUSH1 0x40 MLOAD DUP1 SWAP2 SUB SWAP1 RETURN JUMPDEST PUSH2 0x8D PUSH1 0x4 DUP1 CALLDATASIZE SUB DUP2 ADD SWAP1 PUSH2 0x88 SWAP2 SWAP1 PUSH2 0x213 JUMP JUMPDEST PUSH2 0xE4 JUMP JUMPDEST STOP JUMPDEST PUSH2 0x97 PUSH2 0xED JUMP JUMPDEST PUSH1 0x40 MLOAD PUSH2 0xA4 SWAP2 SWAP1 PUSH2 0x1FA JUMP JUMPDEST PUSH1 0x40 MLOAD DUP1 SWAP2 SUB SWAP1 RETURN JUMPDEST PUSH0 PUSH2 0xDC PUSH8 0xDE0B6B3A7640000 PUSH2 0xCE DUP5 PUSH0 SLOAD PUSH2 0xF2 SWAP1 SWAP2 SWAP1 PUSH4 0xFFFFFFFF AND JUMP JUMPDEST PUSH2 0x107 SWAP1 SWAP2 SWAP1 PUSH4 0xFFFFFFFF AND JUMP JUMPDEST SWAP1 POP SWAP3 SWAP2 POP POP JUMP JUMPDEST DUP1 PUSH0 DUP2 SWAP1 SSTORE POP POP JUMP JUMPDEST PUSH0 SLOAD DUP2 JUMP JUMPDEST PUSH0 DUP2 DUP4 PUSH2 0xFF SWAP2 SWAP1 PUSH2 0x26B JUMP JUMPDEST SWAP1 POP SWAP3 SWAP2 POP POP JUMP JUMPDEST PUSH0 DUP2 DUP4 PUSH2 0x114 SWAP2 SWAP1 PUSH2 0x2D9 JUMP JUMPDEST SWAP1 POP SWAP3 SWAP2 POP POP JUMP JUMPDEST PUSH0 DUP1 REVERT JUMPDEST PUSH0 PUSH20 0xFFFFFFFFFFFFFFFFFFFFFFFFFFFFFFFFFFFFFFFF DUP3 AND SWAP1 POP SWAP2 SWAP1 POP JUMP JUMPDEST PUSH0 PUSH2 0x149 DUP3 PUSH2 0x120 JUMP JUMPDEST SWAP1 POP SWAP2 SWAP1 POP JUMP JUMPDEST PUSH2 0x159 DUP2 PUSH2 0x13F JUMP JUMPDEST DUP2 EQ PUSH2 0x163 JUMPI PUSH0 DUP1 REVERT JUMPDEST POP JUMP JUMPDEST PUSH0 DUP2 CALLDATALOAD SWAP1 POP PUSH2 0x174 DUP2 PUSH2 0x150 JUMP JUMPDEST SWAP3 SWAP2 POP POP JUMP JUMPDEST PUSH0 DUP2 SWAP1 POP SWAP2 SWAP1 POP JUMP JUMPDEST PUSH2 0x18C DUP2 PUSH2 0x17A JUMP JUMPDEST DUP2 EQ PUSH2 0x196 JUMPI PUSH0 DUP1 REVERT JUMPDEST POP JUMP JUMPDEST PUSH0 DUP2 CALLDATALOAD SWAP1 POP PUSH2 0x1A7 DUP2 PUSH2 0x183 JUMP JUMPDEST SWAP3 SWAP2 POP POP JUMP JUMPDEST PUSH0 DUP1 PUSH1 0x40 DUP4 DUP6 SUB SLT ISZERO PUSH2 0x1C3 JUMPI PUSH2 0x1C2 PUSH2 0x11C JUMP JUMPDEST JUMPDEST PUSH0 PUSH2 0x1D0 DUP6 DUP3 DUP7 ADD PUSH2 0x166 JUMP JUMPDEST SWAP3 POP POP PUSH1 0x20 PUSH2 0x1E1 DUP6 DUP3 DUP7 ADD PUSH2 0x199 JUMP JUMPDEST SWAP2 POP POP SWAP3 POP SWAP3 SWAP1 POP JUMP JUMPDEST PUSH2 0x1F4 DUP2 PUSH2 0x17A JUMP JUMPDEST DUP3 MSTORE POP POP JUMP JUMPDEST PUSH0 PUSH1 0x20 DUP3 ADD SWAP1 POP PUSH2 0x20D PUSH0 DUP4 ADD DUP5 PUSH2 0x1EB JUMP JUMPDEST SWAP3 SWAP2 POP POP JUMP JUMPDEST PUSH0 PUSH1 0x20 DUP3 DUP5 SUB SLT ISZERO PUSH2 0x228 JUMPI PUSH2 0x227 PUSH2 0x11C JUMP JUMPDEST JUMPDEST PUSH0 PUSH2 0x235 DUP5 DUP3 DUP6 ADD PUSH2 0x199 JUMP JUMPDEST SWAP2 POP POP SWAP3 SWAP2 POP POP JUMP JUMPDEST PUSH32 0x4E487B7100000000000000000000000000000000000000000000000000000000 PUSH0 MSTORE PUSH1 0x11 PUSH1 0x4 MSTORE PUSH1 0x24 PUSH0 REVERT JUMPDEST PUSH0 PUSH2 0x275 DUP3 PUSH2 0x17A JUMP JUMPDEST SWAP2 POP PUSH2 0x280 DUP4 PUSH2 0x17A JUMP JUMPDEST SWAP3 POP DUP3 DUP3 MUL PUSH2 0x28E DUP2 PUSH2 0x17A JUMP JUMPDEST SWAP2 POP DUP3 DUP3 DIV DUP5 EQ DUP4 ISZERO OR PUSH2 0x2A5 JUMPI PUSH2 0x2A4 PUSH2 0x23E JUMP JUMPDEST JUMPDEST POP SWAP3 SWAP2 POP POP JUMP JUMPDEST PUSH32 0x4E487B7100000000000000000000000000000000000000000000000000000000 PUSH0 MSTORE PUSH1 0x12 PUSH1 0x4 MSTORE PUSH1 0x24 PUSH0 REVERT JUMPDEST PUSH0 PUSH2 0x2E3 DUP3 PUSH2 0x17A JUMP JUMPDEST SWAP2 POP PUSH2 0x2EE DUP4 PUSH2 0x17A JUMP JUMPDEST SWAP3 POP DUP3 PUSH2 0x2FE JUMPI PUSH2 0x2FD PUSH2 0x2AC JUMP JUMPDEST JUMPDEST DUP3 DUP3 DIV SWAP1 POP SWAP3 SWAP2 POP POP JUMP INVALID LOG2 PUSH5 0x6970667358 0x22 SLT KECCAK256 MSTORE BLOCKHASH 0xEA 0xFB 0xD0 SWAP2 0xBB 0xE1 0x2B SWAP11 0xE0 PC 0xAA 0x2F CREATE 0xF8 SWAP2 LOG0 SHR 0xB2 0xD3 0xC7 JUMP CALLDATACOPY PUSH12 0x2CEDE978F68E0464736F6C63 NUMBER STOP ADDMOD BYTE STOP CALLER "
				},
				"gasEstimates": {
					"creation": {
						"codeDepositCost": "166200",
						"executionCost": "206",
						"totalCost": "166406"
					},
					"external": {
						"consult(address,uint256)": "infinite",
						"price()": "2446",
						"setPrice(uint256)": "22514"
					}
				},
				"methodIdentifiers": {
					"consult(address,uint256)": "3ddac953",
					"price()": "a035b1fe",
					"setPrice(uint256)": "91b7f5ed"
				}
			},
			"storageLayout": {
				"storage": [
					{
						"astId": 319,
						"contract": "contracts/oracle.sol:Oracle",
						"label": "price",
						"offset": 0,
						"slot": "0",
						"type": "t_uint256"
					}
				],
				"types": {
					"t_uint256": {
						"encoding": "inplace",
						"label": "uint256",
						"numberOfBytes": "32"
					}
				}
			},
			"userdoc": {
				"kind": "user",
				"methods": {},
				"version": 1
			}
		}
	}
}