{
	"data": {
		"bytecode": {
			"linkReferences": {},
			"object": "60806040526012600655600654600a610018919061050e565b60016100249190610558565b60075560026006546100369190610599565b600a610042919061050e565b606961004e9190610558565b60085534801561005c575f80fd5b50604051611def380380611def833981810160405281019061007e919061062a565b335f73ffffffffffffffffffffffffffffffffffffffff168173ffffffffffffffffffffffffffffffffffffffff16036100ef575f6040517f1e4fbdf70000000000000000000000000000000000000000000000000000000081526004016100e691906106b0565b60405180910390fd5b6100fe816102e860201b60201c565b508460015f6101000a81548173ffffffffffffffffffffffffffffffffffffffff021916908373ffffffffffffffffffffffffffffffffffffffff1602179055508360025f6101000a81548173ffffffffffffffffffffffffffffffffffffffff021916908373ffffffffffffffffffffffffffffffffffffffff1602179055508260035f6101000a81548173ffffffffffffffffffffffffffffffffffffffff021916908373ffffffffffffffffffffffffffffffffffffffff1602179055508160045f6101000a81548173ffffffffffffffffffffffffffffffffffffffff021916908373ffffffffffffffffffffffffffffffffffffffff1602179055508060055f6101000a81548173ffffffffffffffffffffffffffffffffffffffff021916908373ffffffffffffffffffffffffffffffffffffffff16021790555060015f9054906101000a900473ffffffffffffffffffffffffffffffffffffffff1673ffffffffffffffffffffffffffffffffffffffff166370a08231306040518263ffffffff1660e01b815260040161029991906106b0565b602060405180830381865afa1580156102b4573d5f803e3d5ffd5b505050506040513d601f19601f820116820180604052508101906102d891906106f3565b600981905550505050505061071e565b5f805f9054906101000a900473ffffffffffffffffffffffffffffffffffffffff169050815f806101000a81548173ffffffffffffffffffffffffffffffffffffffff021916908373ffffffffffffffffffffffffffffffffffffffff1602179055508173ffffffffffffffffffffffffffffffffffffffff168173ffffffffffffffffffffffffffffffffffffffff167f8be0079c531659141344cd1fd0a4f28419497f9722a3daafe3b4186f6b6457e060405160405180910390a35050565b7f4e487b71000000000000000000000000000000000000000000000000000000005f52601160045260245ffd5b5f8160011c9050919050565b5f808291508390505b600185111561042b57808604811115610407576104066103a9565b5b60018516156104165780820291505b8081029050610424856103d6565b94506103eb565b94509492505050565b5f8261044357600190506104fe565b81610450575f90506104fe565b816001811461046657600281146104705761049f565b60019150506104fe565b60ff841115610482576104816103a9565b5b8360020a915084821115610499576104986103a9565b5b506104fe565b5060208310610133831016604e8410600b84101617156104d45782820a9050838111156104cf576104ce6103a9565b5b6104fe565b6104e184848460016103e2565b925090508184048111156104f8576104f76103a9565b5b81810290505b9392505050565b5f819050919050565b5f61051882610505565b915061052383610505565b92506105507fffffffffffffffffffffffffffffffffffffffffffffffffffffffffffffffff8484610434565b905092915050565b5f61056282610505565b915061056d83610505565b925082820261057b81610505565b91508282048414831517610592576105916103a9565b5b5092915050565b5f6105a382610505565b91506105ae83610505565b92508282039050818111156105c6576105c56103a9565b5b92915050565b5f80fd5b5f73ffffffffffffffffffffffffffffffffffffffff82169050919050565b5f6105f9826105d0565b9050919050565b610609816105ef565b8114610613575f80fd5b50565b5f8151905061062481610600565b92915050565b5f805f805f60a08688031215610643576106426105cc565b5b5f61065088828901610616565b955050602061066188828901610616565b945050604061067288828901610616565b935050606061068388828901610616565b925050608061069488828901610616565b9150509295509295909350565b6106aa816105ef565b82525050565b5f6020820190506106c35f8301846106a1565b92915050565b6106d281610505565b81146106dc575f80fd5b50565b5f815190506106ed816106c9565b92915050565b5f60208284031215610708576107076105cc565b5b5f610715848285016106df565b91505092915050565b6116c48061072b5f395ff3fe608060405234801561000f575f80fd5b50600436106100fe575f3560e01c80637dc0d1d011610095578063961be39111610064578063961be39114610240578063a8d5fd651461025e578063e189ce141461027c578063f2fde38b14610298576100fe565b80637dc0d1d0146101c85780638da5cb5b146101e6578063901717d1146102045780639358928b14610222576100fe565b80635b756179116100d15780635b756179146101785780635e02c51e1461018257806364c9ec6f146101a0578063715018a6146101be576100fe565b80632d3b5a8614610102578063313ce5671461012057806354f04a111461013e57806359bf5d391461015a575b5f80fd5b61010a6102b4565b6040516101179190610ffc565b60405180910390f35b6101286102ba565b6040516101359190610ffc565b60405180910390f35b61015860048036038101906101539190611043565b6102c0565b005b6101626104d1565b60405161016f9190610ffc565b60405180910390f35b6101806104da565b005b61018a61084a565b60405161019791906110c0565b60405180910390f35b6101a861086f565b6040516101b591906110c0565b60405180910390f35b6101c6610894565b005b6101d06108a7565b6040516101dd91906110c0565b60405180910390f35b6101ee6108cc565b6040516101fb91906110c0565b60405180910390f35b61020c6108f3565b6040516102199190610ffc565b60405180910390f35b61022a6108f9565b6040516102379190610ffc565b60405180910390f35b61024861099a565b60405161025591906110c0565b60405180910390f35b6102666109bf565b60405161027391906110c0565b60405180910390f35b610296600480360381019061029191906110d9565b6109e4565b005b6102b260048036038101906102ad919061112e565b610d43565b005b60085481565b60065481565b5f8211610302576040517f08c379a00000000000000000000000000000000000000000000000000000000081526004016102f9906111d9565b60405180910390fd5b5f61030b610dc7565b905081811115610350576040517f08c379a000000000000000000000000000000000000000000000000000000000815260040161034790611241565b60405180910390fd5b6007548110610394576040517f08c379a000000000000000000000000000000000000000000000000000000000815260040161038b906112cf565b60405180910390fd5b60015f9054906101000a900473ffffffffffffffffffffffffffffffffffffffff1673ffffffffffffffffffffffffffffffffffffffff166379cc67906103d9610e5b565b856040518363ffffffff1660e01b81526004016103f79291906112ed565b5f604051808303815f87803b15801561040e575f80fd5b505af1158015610420573d5f803e3d5ffd5b5050505060025f9054906101000a900473ffffffffffffffffffffffffffffffffffffffff1673ffffffffffffffffffffffffffffffffffffffff166340c10f19610469610e5b565b83600754876104789190611341565b61048291906113af565b6040518363ffffffff1660e01b815260040161049f9291906112ed565b5f604051808303815f87803b1580156104b6575f80fd5b505af11580156104c8573d5f803e3d5ffd5b50505050505050565b5f600954905090565b5f6104e3610dc7565b905060085481116104f45750610848565b5f6007548261050391906113df565b90505f600754826105126108f9565b61051c9190611341565b61052691906113af565b905060015f9054906101000a900473ffffffffffffffffffffffffffffffffffffffff1673ffffffffffffffffffffffffffffffffffffffff166340c10f1930836040518363ffffffff1660e01b81526004016105849291906112ed565b5f604051808303815f87803b15801561059b575f80fd5b505af11580156105ad573d5f803e3d5ffd5b505050505f6106568260095460025f9054906101000a900473ffffffffffffffffffffffffffffffffffffffff1673ffffffffffffffffffffffffffffffffffffffff166318160ddd6040518163ffffffff1660e01b8152600401602060405180830381865afa158015610623573d5f803e3d5ffd5b505050506040513d601f19601f820116820180604052508101906106479190611426565b61065191906113df565b610e62565b90505f8111156106b057606460508361066f9190611341565b61067991906113af565b811061069b57606460508261068e9190611341565b61069891906113af565b90505b806009546106a99190611451565b6009819055505b80826106bc91906113df565b91505f8211156108435760015f9054906101000a900473ffffffffffffffffffffffffffffffffffffffff1673ffffffffffffffffffffffffffffffffffffffff1663095ea7b360055f9054906101000a900473ffffffffffffffffffffffffffffffffffffffff16846040518363ffffffff1660e01b81526004016107439291906112ed565b6020604051808303815f875af115801561075f573d5f803e3d5ffd5b505050506040513d601f19601f8201168201806040525081019061078391906114b9565b5060015f9054906101000a900473ffffffffffffffffffffffffffffffffffffffff1673ffffffffffffffffffffffffffffffffffffffff1663a9059cbb60055f9054906101000a900473ffffffffffffffffffffffffffffffffffffffff16846040518363ffffffff1660e01b81526004016108019291906112ed565b6020604051808303815f875af115801561081d573d5f803e3d5ffd5b505050506040513d601f19601f8201168201806040525081019061084191906114b9565b505b505050505b565b60055f9054906101000a900473ffffffffffffffffffffffffffffffffffffffff1681565b60025f9054906101000a900473ffffffffffffffffffffffffffffffffffffffff1681565b61089c610e78565b6108a55f610eff565b565b60045f9054906101000a900473ffffffffffffffffffffffffffffffffffffffff1681565b5f805f9054906101000a900473ffffffffffffffffffffffffffffffffffffffff16905090565b60075481565b5f60095460015f9054906101000a900473ffffffffffffffffffffffffffffffffffffffff1673ffffffffffffffffffffffffffffffffffffffff166318160ddd6040518163ffffffff1660e01b8152600401602060405180830381865afa158015610967573d5f803e3d5ffd5b505050506040513d601f19601f8201168201806040525081019061098b9190611426565b61099591906113df565b905090565b60015f9054906101000a900473ffffffffffffffffffffffffffffffffffffffff1681565b60035f9054906101000a900473ffffffffffffffffffffffffffffffffffffffff1681565b5f8111610a26576040517f08c379a0000000000000000000000000000000000000000000000000000000008152600401610a1d90611554565b60405180910390fd5b5f610a2f610dc7565b90506008548111610a75576040517f08c379a0000000000000000000000000000000000000000000000000000000008152600401610a6c906115e2565b60405180910390fd5b8160015f9054906101000a900473ffffffffffffffffffffffffffffffffffffffff1673ffffffffffffffffffffffffffffffffffffffff166370a08231306040518263ffffffff1660e01b8152600401610ad091906110c0565b602060405180830381865afa158015610aeb573d5f803e3d5ffd5b505050506040513d601f19601f82011682018060405250810190610b0f9190611426565b1015610b50576040517f08c379a0000000000000000000000000000000000000000000000000000000008152600401610b4790611670565b60405180910390fd5b610b5c60095483610e62565b600981905560098190555060025f9054906101000a900473ffffffffffffffffffffffffffffffffffffffff1673ffffffffffffffffffffffffffffffffffffffff166379cc6790610bac610e5b565b846040518363ffffffff1660e01b8152600401610bca9291906112ed565b5f604051808303815f87803b158015610be1575f80fd5b505af1158015610bf3573d5f803e3d5ffd5b5050505060015f9054906101000a900473ffffffffffffffffffffffffffffffffffffffff1673ffffffffffffffffffffffffffffffffffffffff1663095ea7b3610c3c610e5b565b846040518363ffffffff1660e01b8152600401610c5a9291906112ed565b6020604051808303815f875af1158015610c76573d5f803e3d5ffd5b505050506040513d601f19601f82011682018060405250810190610c9a91906114b9565b5060015f9054906101000a900473ffffffffffffffffffffffffffffffffffffffff1673ffffffffffffffffffffffffffffffffffffffff1663a9059cbb610ce0610e5b565b846040518363ffffffff1660e01b8152600401610cfe9291906112ed565b6020604051808303815f875af1158015610d1a573d5f803e3d5ffd5b505050506040513d601f19601f82011682018060405250810190610d3e91906114b9565b505050565b610d4b610e78565b5f73ffffffffffffffffffffffffffffffffffffffff168173ffffffffffffffffffffffffffffffffffffffff1603610dbb575f6040517f1e4fbdf7000000000000000000000000000000000000000000000000000000008152600401610db291906110c0565b60405180910390fd5b610dc481610eff565b50565b5f60045f9054906101000a900473ffffffffffffffffffffffffffffffffffffffff1673ffffffffffffffffffffffffffffffffffffffff166398d5fdca6040518163ffffffff1660e01b8152600401602060405180830381865afa158015610e32573d5f803e3d5ffd5b505050506040513d601f19601f82011682018060405250810190610e569190611426565b905090565b5f33905090565b5f610e708284108484610fc0565b905092915050565b610e80610e5b565b73ffffffffffffffffffffffffffffffffffffffff16610e9e6108cc565b73ffffffffffffffffffffffffffffffffffffffff1614610efd57610ec1610e5b565b6040517f118cdaa7000000000000000000000000000000000000000000000000000000008152600401610ef491906110c0565b60405180910390fd5b565b5f805f9054906101000a900473ffffffffffffffffffffffffffffffffffffffff169050815f806101000a81548173ffffffffffffffffffffffffffffffffffffffff021916908373ffffffffffffffffffffffffffffffffffffffff1602179055508173ffffffffffffffffffffffffffffffffffffffff168173ffffffffffffffffffffffffffffffffffffffff167f8be0079c531659141344cd1fd0a4f28419497f9722a3daafe3b4186f6b6457e060405160405180910390a35050565b5f610fca84610fd9565b82841802821890509392505050565b5f8115159050919050565b5f819050919050565b610ff681610fe4565b82525050565b5f60208201905061100f5f830184610fed565b92915050565b5f80fd5b61102281610fe4565b811461102c575f80fd5b50565b5f8135905061103d81611019565b92915050565b5f806040838503121561105957611058611015565b5b5f6110668582860161102f565b92505060206110778582860161102f565b9150509250929050565b5f73ffffffffffffffffffffffffffffffffffffffff82169050919050565b5f6110aa82611081565b9050919050565b6110ba816110a0565b82525050565b5f6020820190506110d35f8301846110b1565b92915050565b5f602082840312156110ee576110ed611015565b5b5f6110fb8482850161102f565b91505092915050565b61110d816110a0565b8114611117575f80fd5b50565b5f8135905061112881611104565b92915050565b5f6020828403121561114357611142611015565b5b5f6111508482850161111a565b91505092915050565b5f82825260208201905092915050565b7f54726561737572793a2063616e6e6f7420707572636861736520626f6e6473205f8201527f77697468207a65726f20616d6f756e7400000000000000000000000000000000602082015250565b5f6111c3603083611159565b91506111ce82611169565b604082019050919050565b5f6020820190508181035f8301526111f0816111b7565b9050919050565b7f54726561737572793a2063617368207072696365206d6f7665640000000000005f82015250565b5f61122b601a83611159565b9150611236826111f7565b602082019050919050565b5f6020820190508181035f8301526112588161121f565b9050919050565b7f54726561737572793a2063617368207072696365206973206e6f742062656c6f5f8201527f7720243100000000000000000000000000000000000000000000000000000000602082015250565b5f6112b9602483611159565b91506112c48261125f565b604082019050919050565b5f6020820190508181035f8301526112e6816112ad565b9050919050565b5f6040820190506113005f8301856110b1565b61130d6020830184610fed565b9392505050565b7f4e487b71000000000000000000000000000000000000000000000000000000005f52601160045260245ffd5b5f61134b82610fe4565b915061135683610fe4565b925082820261136481610fe4565b9150828204841483151761137b5761137a611314565b5b5092915050565b7f4e487b71000000000000000000000000000000000000000000000000000000005f52601260045260245ffd5b5f6113b982610fe4565b91506113c483610fe4565b9250826113d4576113d3611382565b5b828204905092915050565b5f6113e982610fe4565b91506113f483610fe4565b925082820390508181111561140c5761140b611314565b5b92915050565b5f8151905061142081611019565b92915050565b5f6020828403121561143b5761143a611015565b5b5f61144884828501611412565b91505092915050565b5f61145b82610fe4565b915061146683610fe4565b925082820190508082111561147e5761147d611314565b5b92915050565b5f8115159050919050565b61149881611484565b81146114a2575f80fd5b50565b5f815190506114b38161148f565b92915050565b5f602082840312156114ce576114cd611015565b5b5f6114db848285016114a5565b91505092915050565b7f54726561737572793a2063616e6e6f742072656465656d20626f6e64732077695f8201527f7468207a65726f20616d6f756e74000000000000000000000000000000000000602082015250565b5f61153e602e83611159565b9150611549826114e4565b604082019050919050565b5f6020820190508181035f83015261156b81611532565b9050919050565b7f54726561737572793a20636173685072696365206e6f7420656c696769626c655f8201527f20666f7220626f6e642070757263686173650000000000000000000000000000602082015250565b5f6115cc603283611159565b91506115d782611572565b604082019050919050565b5f6020820190508181035f8301526115f9816115c0565b9050919050565b7f54726561737572793a20747265617375727920686173206e6f206d6f726520625f8201527f7564676574000000000000000000000000000000000000000000000000000000602082015250565b5f61165a602583611159565b915061166582611600565b604082019050919050565b5f6020820190508181035f8301526116878161164e565b905091905056fea264697066735822122025f0aedcfcaca86c2f09a0feb3a10211c27549b5f917b16c53047b95bf38536264736f6c634300081a0033",
			"opcodes": "PUSH1 0x80 PUSH1 0x40 MSTORE PUSH1 0x12 PUSH1 0x6 SSTORE PUSH1 0x6 SLOAD PUSH1 0xA PUSH2 0x18 SWAP2 SWAP1 PUSH2 0x50E JUMP JUMPDEST PUSH1 0x1 PUSH2 0x24 SWAP2 SWAP1 PUSH2 0x558 JUMP JUMPDEST PUSH1 0x7 SSTORE PUSH1 0x2 PUSH1 0x6 SLOAD PUSH2 0x36 SWAP2 SWAP1 PUSH2 0x599 JUMP JUMPDEST PUSH1 0xA PUSH2 0x42 SWAP2 SWAP1 PUSH2 0x50E JUMP JUMPDEST PUSH1 0x69 PUSH2 0x4E SWAP2 SWAP1 PUSH2 0x558 JUMP JUMPDEST PUSH1 0x8 SSTORE CALLVALUE DUP1 ISZERO PUSH2 0x5C JUMPI PUSH0 DUP1 REVERT JUMPDEST POP PUSH1 0x40 MLOAD PUSH2 0x1DEF CODESIZE SUB DUP1 PUSH2 0x1DEF DUP4 CODECOPY DUP2 DUP2 ADD PUSH1 0x40 MSTORE DUP2 ADD SWAP1 PUSH2 0x7E SWAP2 SWAP1 PUSH2 0x62A JUMP JUMPDEST CALLER PUSH0 PUSH20 0xFFFFFFFFFFFFFFFFFFFFFFFFFFFFFFFFFFFFFFFF AND DUP2 PUSH20 0xFFFFFFFFFFFFFFFFFFFFFFFFFFFFFFFFFFFFFFFF AND SUB PUSH2 0xEF JUMPI PUSH0 PUSH1 0x40 MLOAD PUSH32 0x1E4FBDF700000000000000000000000000000000000000000000000000000000 DUP2 MSTORE PUSH1 0x4 ADD PUSH2 0xE6 SWAP2 SWAP1 PUSH2 0x6B0 JUMP JUMPDEST PUSH1 0x40 MLOAD DUP1 SWAP2 SUB SWAP1 REVERT JUMPDEST PUSH2 0xFE DUP2 PUSH2 0x2E8 PUSH1 0x20 SHL PUSH1 0x20 SHR JUMP JUMPDEST POP DUP5 PUSH1 0x1 PUSH0 PUSH2 0x100 EXP DUP2 SLOAD DUP2 PUSH20 0xFFFFFFFFFFFFFFFFFFFFFFFFFFFFFFFFFFFFFFFF MUL NOT AND SWAP1 DUP4 PUSH20 0xFFFFFFFFFFFFFFFFFFFFFFFFFFFFFFFFFFFFFFFF AND MUL OR SWAP1 SSTORE POP DUP4 PUSH1 0x2 PUSH0 PUSH2 0x100 EXP DUP2 SLOAD DUP2 PUSH20 0xFFFFFFFFFFFFFFFFFFFFFFFFFFFFFFFFFFFFFFFF MUL NOT AND SWAP1 DUP4 PUSH20 0xFFFFFFFFFFFFFFFFFFFFFFFFFFFFFFFFFFFFFFFF AND MUL OR SWAP1 SSTORE POP DUP3 PUSH1 0x3 PUSH0 PUSH2 0x100 EXP DUP2 SLOAD DUP2 PUSH20 0xFFFFFFFFFFFFFFFFFFFFFFFFFFFFFFFFFFFFFFFF MUL NOT AND SWAP1 DUP4 PUSH20 0xFFFFFFFFFFFFFFFFFFFFFFFFFFFFFFFFFFFFFFFF AND MUL OR SWAP1 SSTORE POP DUP2 PUSH1 0x4 PUSH0 PUSH2 0x100 EXP DUP2 SLOAD DUP2 PUSH20 0xFFFFFFFFFFFFFFFFFFFFFFFFFFFFFFFFFFFFFFFF MUL NOT AND SWAP1 DUP4 PUSH20 0xFFFFFFFFFFFFFFFFFFFFFFFFFFFFFFFFFFFFFFFF AND MUL OR SWAP1 SSTORE POP DUP1 PUSH1 0x5 PUSH0 PUSH2 0x100 EXP DUP2 SLOAD DUP2 PUSH20 0xFFFFFFFFFFFFFFFFFFFFFFFFFFFFFFFFFFFFFFFF MUL NOT AND SWAP1 DUP4 PUSH20 0xFFFFFFFFFFFFFFFFFFFFFFFFFFFFFFFFFFFFFFFF AND MUL OR SWAP1 SSTORE POP PUSH1 0x1 PUSH0 SWAP1 SLOAD SWAP1 PUSH2 0x100 EXP SWAP1 DIV PUSH20 0xFFFFFFFFFFFFFFFFFFFFFFFFFFFFFFFFFFFFFFFF AND PUSH20 0xFFFFFFFFFFFFFFFFFFFFFFFFFFFFFFFFFFFFFFFF AND PUSH4 0x70A08231 ADDRESS PUSH1 0x40 MLOAD DUP3 PUSH4 0xFFFFFFFF AND PUSH1 0xE0 SHL DUP2 MSTORE PUSH1 0x4 ADD PUSH2 0x299 SWAP2 SWAP1 PUSH2 0x6B0 JUMP JUMPDEST PUSH1 0x20 PUSH1 0x40 MLOAD DUP1 DUP4 SUB DUP2 DUP7 GAS STATICCALL ISZERO DUP1 ISZERO PUSH2 0x2B4 JUMPI RETURNDATASIZE PUSH0 DUP1 RETURNDATACOPY RETURNDATASIZE PUSH0 REVERT JUMPDEST POP POP POP POP PUSH1 0x40 MLOAD RETURNDATASIZE PUSH1 0x1F NOT PUSH1 0x1F DUP3 ADD AND DUP3 ADD DUP1 PUSH1 0x40 MSTORE POP DUP2 ADD SWAP1 PUSH2 0x2D8 SWAP2 SWAP1 PUSH2 0x6F3 JUMP JUMPDEST PUSH1 0x9 DUP2 SWAP1 SSTORE POP POP POP POP POP POP PUSH2 0x71E JUMP JUMPDEST PUSH0 DUP1 PUSH0 SWAP1 SLOAD SWAP1 PUSH2 0x100 EXP SWAP1 DIV PUSH20 0xFFFFFFFFFFFFFFFFFFFFFFFFFFFFFFFFFFFFFFFF AND SWAP1 POP DUP2 PUSH0 DUP1 PUSH2 0x100 EXP DUP2 SLOAD DUP2 PUSH20 0xFFFFFFFFFFFFFFFFFFFFFFFFFFFFFFFFFFFFFFFF MUL NOT AND SWAP1 DUP4 PUSH20 0xFFFFFFFFFFFFFFFFFFFFFFFFFFFFFFFFFFFFFFFF AND MUL OR SWAP1 SSTORE POP DUP2 PUSH20 0xFFFFFFFFFFFFFFFFFFFFFFFFFFFFFFFFFFFFFFFF AND DUP2 PUSH20 0xFFFFFFFFFFFFFFFFFFFFFFFFFFFFFFFFFFFFFFFF AND PUSH32 0x8BE0079C531659141344CD1FD0A4F28419497F9722A3DAAFE3B4186F6B6457E0 PUSH1 0x40 MLOAD PUSH1 0x40 MLOAD DUP1 SWAP2 SUB SWAP1 LOG3 POP POP JUMP JUMPDEST PUSH32 0x4E487B7100000000000000000000000000000000000000000000000000000000 PUSH0 MSTORE PUSH1 0x11 PUSH1 0x4 MSTORE PUSH1 0x24 PUSH0 REVERT JUMPDEST PUSH0 DUP2 PUSH1 0x1 SHR SWAP1 POP SWAP2 SWAP1 POP JUMP JUMPDEST PUSH0 DUP1 DUP3 SWAP2 POP DUP4 SWAP1 POP JUMPDEST PUSH1 0x1 DUP6 GT ISZERO PUSH2 0x42B JUMPI DUP1 DUP7 DIV DUP2 GT ISZERO PUSH2 0x407 JUMPI PUSH2 0x406 PUSH2 0x3A9 JUMP JUMPDEST JUMPDEST PUSH1 0x1 DUP6 AND ISZERO PUSH2 0x416 JUMPI DUP1 DUP3 MUL SWAP2 POP JUMPDEST DUP1 DUP2 MUL SWAP1 POP PUSH2 0x424 DUP6 PUSH2 0x3D6 JUMP JUMPDEST SWAP5 POP PUSH2 0x3EB JUMP JUMPDEST SWAP5 POP SWAP5 SWAP3 POP POP POP JUMP JUMPDEST PUSH0 DUP3 PUSH2 0x443 JUMPI PUSH1 0x1 SWAP1 POP PUSH2 0x4FE JUMP JUMPDEST DUP2 PUSH2 0x450 JUMPI PUSH0 SWAP1 POP PUSH2 0x4FE JUMP JUMPDEST DUP2 PUSH1 0x1 DUP2 EQ PUSH2 0x466 JUMPI PUSH1 0x2 DUP2 EQ PUSH2 0x470 JUMPI PUSH2 0x49F JUMP JUMPDEST PUSH1 0x1 SWAP2 POP POP PUSH2 0x4FE JUMP JUMPDEST PUSH1 0xFF DUP5 GT ISZERO PUSH2 0x482 JUMPI PUSH2 0x481 PUSH2 0x3A9 JUMP JUMPDEST JUMPDEST DUP4 PUSH1 0x2 EXP SWAP2 POP DUP5 DUP3 GT ISZERO PUSH2 0x499 JUMPI PUSH2 0x498 PUSH2 0x3A9 JUMP JUMPDEST JUMPDEST POP PUSH2 0x4FE JUMP JUMPDEST POP PUSH1 0x20 DUP4 LT PUSH2 0x133 DUP4 LT AND PUSH1 0x4E DUP5 LT PUSH1 0xB DUP5 LT AND OR ISZERO PUSH2 0x4D4 JUMPI DUP3 DUP3 EXP SWAP1 POP DUP4 DUP2 GT ISZERO PUSH2 0x4CF JUMPI PUSH2 0x4CE PUSH2 0x3A9 JUMP JUMPDEST JUMPDEST PUSH2 0x4FE JUMP JUMPDEST PUSH2 0x4E1 DUP5 DUP5 DUP5 PUSH1 0x1 PUSH2 0x3E2 JUMP JUMPDEST SWAP3 POP SWAP1 POP DUP2 DUP5 DIV DUP2 GT ISZERO PUSH2 0x4F8 JUMPI PUSH2 0x4F7 PUSH2 0x3A9 JUMP JUMPDEST JUMPDEST DUP2 DUP2 MUL SWAP1 POP JUMPDEST SWAP4 SWAP3 POP POP POP JUMP JUMPDEST PUSH0 DUP2 SWAP1 POP SWAP2 SWAP1 POP JUMP JUMPDEST PUSH0 PUSH2 0x518 DUP3 PUSH2 0x505 JUMP JUMPDEST SWAP2 POP PUSH2 0x523 DUP4 PUSH2 0x505 JUMP JUMPDEST SWAP3 POP PUSH2 0x550 PUSH32 0xFFFFFFFFFFFFFFFFFFFFFFFFFFFFFFFFFFFFFFFFFFFFFFFFFFFFFFFFFFFFFFFF DUP5 DUP5 PUSH2 0x434 JUMP JUMPDEST SWAP1 POP SWAP3 SWAP2 POP POP JUMP JUMPDEST PUSH0 PUSH2 0x562 DUP3 PUSH2 0x505 JUMP JUMPDEST SWAP2 POP PUSH2 0x56D DUP4 PUSH2 0x505 JUMP JUMPDEST SWAP3 POP DUP3 DUP3 MUL PUSH2 0x57B DUP2 PUSH2 0x505 JUMP JUMPDEST SWAP2 POP DUP3 DUP3 DIV DUP5 EQ DUP4 ISZERO OR PUSH2 0x592 JUMPI PUSH2 0x591 PUSH2 0x3A9 JUMP JUMPDEST JUMPDEST POP SWAP3 SWAP2 POP POP JUMP JUMPDEST PUSH0 PUSH2 0x5A3 DUP3 PUSH2 0x505 JUMP JUMPDEST SWAP2 POP PUSH2 0x5AE DUP4 PUSH2 0x505 JUMP JUMPDEST SWAP3 POP DUP3 DUP3 SUB SWAP1 POP DUP2 DUP2 GT ISZERO PUSH2 0x5C6 JUMPI PUSH2 0x5C5 PUSH2 0x3A9 JUMP JUMPDEST JUMPDEST SWAP3 SWAP2 POP POP JUMP JUMPDEST PUSH0 DUP1 REVERT JUMPDEST PUSH0 PUSH20 0xFFFFFFFFFFFFFFFFFFFFFFFFFFFFFFFFFFFFFFFF DUP3 AND SWAP1 POP SWAP2 SWAP1 POP JUMP JUMPDEST PUSH0 PUSH2 0x5F9 DUP3 PUSH2 0x5D0 JUMP JUMPDEST SWAP1 POP SWAP2 SWAP1 POP JUMP JUMPDEST PUSH2 0x609 DUP2 PUSH2 0x5EF JUMP JUMPDEST DUP2 EQ PUSH2 0x613 JUMPI PUSH0 DUP1 REVERT JUMPDEST POP JUMP JUMPDEST PUSH0 DUP2 MLOAD SWAP1 POP PUSH2 0x624 DUP2 PUSH2 0x600 JUMP JUMPDEST SWAP3 SWAP2 POP POP JUMP JUMPDEST PUSH0 DUP1 PUSH0 DUP1 PUSH0 PUSH1 0xA0 DUP7 DUP9 SUB SLT ISZERO PUSH2 0x643 JUMPI PUSH2 0x642 PUSH2 0x5CC JUMP JUMPDEST JUMPDEST PUSH0 PUSH2 0x650 DUP9 DUP3 DUP10 ADD PUSH2 0x616 JUMP JUMPDEST SWAP6 POP POP PUSH1 0x20 PUSH2 0x661 DUP9 DUP3 DUP10 ADD PUSH2 0x616 JUMP JUMPDEST SWAP5 POP POP PUSH1 0x40 PUSH2 0x672 DUP9 DUP3 DUP10 ADD PUSH2 0x616 JUMP JUMPDEST SWAP4 POP POP PUSH1 0x60 PUSH2 0x683 DUP9 DUP3 DUP10 ADD PUSH2 0x616 JUMP JUMPDEST SWAP3 POP POP PUSH1 0x80 PUSH2 0x694 DUP9 DUP3 DUP10 ADD PUSH2 0x616 JUMP JUMPDEST SWAP2 POP POP SWAP3 SWAP6 POP SWAP3 SWAP6 SWAP1 SWAP4 POP JUMP JUMPDEST PUSH2 0x6AA DUP2 PUSH2 0x5EF JUMP JUMPDEST DUP3 MSTORE POP POP JUMP JUMPDEST PUSH0 PUSH1 0x20 DUP3 ADD SWAP1 POP PUSH2 0x6C3 PUSH0 DUP4 ADD DUP5 PUSH2 0x6A1 JUMP JUMPDEST SWAP3 SWAP2 POP POP JUMP JUMPDEST PUSH2 0x6D2 DUP2 PUSH2 0x505 JUMP JUMPDEST DUP2 EQ PUSH2 0x6DC JUMPI PUSH0 DUP1 REVERT JUMPDEST POP JUMP JUMPDEST PUSH0 DUP2 MLOAD SWAP1 POP PUSH2 0x6ED DUP2 PUSH2 0x6C9 JUMP JUMPDEST SWAP3 SWAP2 POP POP JUMP JUMPDEST PUSH0 PUSH1 0x20 DUP3 DUP5 SUB SLT ISZERO PUSH2 0x708 JUMPI PUSH2 0x707 PUSH2 0x5CC JUMP JUMPDEST JUMPDEST PUSH0 PUSH2 0x715 DUP5 DUP3 DUP6 ADD PUSH2 0x6DF JUMP JUMPDEST SWAP2 POP POP SWAP3 SWAP2 POP POP JUMP JUMPDEST PUSH2 0x16C4 DUP1 PUSH2 0x72B PUSH0 CODECOPY PUSH0 RETURN INVALID PUSH1 0x80 PUSH1 0x40 MSTORE CALLVALUE DUP1 ISZERO PUSH2 0xF JUMPI PUSH0 DUP1 REVERT JUMPDEST POP PUSH1 0x4 CALLDATASIZE LT PUSH2 0xFE JUMPI PUSH0 CALLDATALOAD PUSH1 0xE0 SHR DUP1 PUSH4 0x7DC0D1D0 GT PUSH2 0x95 JUMPI DUP1 PUSH4 0x961BE391 GT PUSH2 0x64 JUMPI DUP1 PUSH4 0x961BE391 EQ PUSH2 0x240 JUMPI DUP1 PUSH4 0xA8D5FD65 EQ PUSH2 0x25E JUMPI DUP1 PUSH4 0xE189CE14 EQ PUSH2 0x27C JUMPI DUP1 PUSH4 0xF2FDE38B EQ PUSH2 0x298 JUMPI PUSH2 0xFE JUMP JUMPDEST DUP1 PUSH4 0x7DC0D1D0 EQ PUSH2 0x1C8 JUMPI DUP1 PUSH4 0x8DA5CB5B EQ PUSH2 0x1E6 JUMPI DUP1 PUSH4 0x901717D1 EQ PUSH2 0x204 JUMPI DUP1 PUSH4 0x9358928B EQ PUSH2 0x222 JUMPI PUSH2 0xFE JUMP JUMPDEST DUP1 PUSH4 0x5B756179 GT PUSH2 0xD1 JUMPI DUP1 PUSH4 0x5B756179 EQ PUSH2 0x178 JUMPI DUP1 PUSH4 0x5E02C51E EQ PUSH2 0x182 JUMPI DUP1 PUSH4 0x64C9EC6F EQ PUSH2 0x1A0 JUMPI DUP1 PUSH4 0x715018A6 EQ PUSH2 0x1BE JUMPI PUSH2 0xFE JUMP JUMPDEST DUP1 PUSH4 0x2D3B5A86 EQ PUSH2 0x102 JUMPI DUP1 PUSH4 0x313CE567 EQ PUSH2 0x120 JUMPI DUP1 PUSH4 0x54F04A11 EQ PUSH2 0x13E JUMPI DUP1 PUSH4 0x59BF5D39 EQ PUSH2 0x15A JUMPI JUMPDEST PUSH0 DUP1 REVERT JUMPDEST PUSH2 0x10A PUSH2 0x2B4 JUMP JUMPDEST PUSH1 0x40 MLOAD PUSH2 0x117 SWAP2 SWAP1 PUSH2 0xFFC JUMP JUMPDEST PUSH1 0x40 MLOAD DUP1 SWAP2 SUB SWAP1 RETURN JUMPDEST PUSH2 0x128 PUSH2 0x2BA JUMP JUMPDEST PUSH1 0x40 MLOAD PUSH2 0x135 SWAP2 SWAP1 PUSH2 0xFFC JUMP JUMPDEST PUSH1 0x40 MLOAD DUP1 SWAP2 SUB SWAP1 RETURN JUMPDEST PUSH2 0x158 PUSH1 0x4 DUP1 CALLDATASIZE SUB DUP2 ADD SWAP1 PUSH2 0x153 SWAP2 SWAP1 PUSH2 0x1043 JUMP JUMPDEST PUSH2 0x2C0 JUMP JUMPDEST STOP JUMPDEST PUSH2 0x162 PUSH2 0x4D1 JUMP JUMPDEST PUSH1 0x40 MLOAD PUSH2 0x16F SWAP2 SWAP1 PUSH2 0xFFC JUMP JUMPDEST PUSH1 0x40 MLOAD DUP1 SWAP2 SUB SWAP1 RETURN JUMPDEST PUSH2 0x180 PUSH2 0x4DA JUMP JUMPDEST STOP JUMPDEST PUSH2 0x18A PUSH2 0x84A JUMP JUMPDEST PUSH1 0x40 MLOAD PUSH2 0x197 SWAP2 SWAP1 PUSH2 0x10C0 JUMP JUMPDEST PUSH1 0x40 MLOAD DUP1 SWAP2 SUB SWAP1 RETURN JUMPDEST PUSH2 0x1A8 PUSH2 0x86F JUMP JUMPDEST PUSH1 0x40 MLOAD PUSH2 0x1B5 SWAP2 SWAP1 PUSH2 0x10C0 JUMP JUMPDEST PUSH1 0x40 MLOAD DUP1 SWAP2 SUB SWAP1 RETURN JUMPDEST PUSH2 0x1C6 PUSH2 0x894 JUMP JUMPDEST STOP JUMPDEST PUSH2 0x1D0 PUSH2 0x8A7 JUMP JUMPDEST PUSH1 0x40 MLOAD PUSH2 0x1DD SWAP2 SWAP1 PUSH2 0x10C0 JUMP JUMPDEST PUSH1 0x40 MLOAD DUP1 SWAP2 SUB SWAP1 RETURN JUMPDEST PUSH2 0x1EE PUSH2 0x8CC JUMP JUMPDEST PUSH1 0x40 MLOAD PUSH2 0x1FB SWAP2 SWAP1 PUSH2 0x10C0 JUMP JUMPDEST PUSH1 0x40 MLOAD DUP1 SWAP2 SUB SWAP1 RETURN JUMPDEST PUSH2 0x20C PUSH2 0x8F3 JUMP JUMPDEST PUSH1 0x40 MLOAD PUSH2 0x219 SWAP2 SWAP1 PUSH2 0xFFC JUMP JUMPDEST PUSH1 0x40 MLOAD DUP1 SWAP2 SUB SWAP1 RETURN JUMPDEST PUSH2 0x22A PUSH2 0x8F9 JUMP JUMPDEST PUSH1 0x40 MLOAD PUSH2 0x237 SWAP2 SWAP1 PUSH2 0xFFC JUMP JUMPDEST PUSH1 0x40 MLOAD DUP1 SWAP2 SUB SWAP1 RETURN JUMPDEST PUSH2 0x248 PUSH2 0x99A JUMP JUMPDEST PUSH1 0x40 MLOAD PUSH2 0x255 SWAP2 SWAP1 PUSH2 0x10C0 JUMP JUMPDEST PUSH1 0x40 MLOAD DUP1 SWAP2 SUB SWAP1 RETURN JUMPDEST PUSH2 0x266 PUSH2 0x9BF JUMP JUMPDEST PUSH1 0x40 MLOAD PUSH2 0x273 SWAP2 SWAP1 PUSH2 0x10C0 JUMP JUMPDEST PUSH1 0x40 MLOAD DUP1 SWAP2 SUB SWAP1 RETURN JUMPDEST PUSH2 0x296 PUSH1 0x4 DUP1 CALLDATASIZE SUB DUP2 ADD SWAP1 PUSH2 0x291 SWAP2 SWAP1 PUSH2 0x10D9 JUMP JUMPDEST PUSH2 0x9E4 JUMP JUMPDEST STOP JUMPDEST PUSH2 0x2B2 PUSH1 0x4 DUP1 CALLDATASIZE SUB DUP2 ADD SWAP1 PUSH2 0x2AD SWAP2 SWAP1 PUSH2 0x112E JUMP JUMPDEST PUSH2 0xD43 JUMP JUMPDEST STOP JUMPDEST PUSH1 0x8 SLOAD DUP2 JUMP JUMPDEST PUSH1 0x6 SLOAD DUP2 JUMP JUMPDEST PUSH0 DUP3 GT PUSH2 0x302 JUMPI PUSH1 0x40 MLOAD PUSH32 0x8C379A000000000000000000000000000000000000000000000000000000000 DUP2 MSTORE PUSH1 0x4 ADD PUSH2 0x2F9 SWAP1 PUSH2 0x11D9 JUMP JUMPDEST PUSH1 0x40 MLOAD DUP1 SWAP2 SUB SWAP1 REVERT JUMPDEST PUSH0 PUSH2 0x30B PUSH2 0xDC7 JUMP JUMPDEST SWAP1 POP DUP2 DUP2 GT ISZERO PUSH2 0x350 JUMPI PUSH1 0x40 MLOAD PUSH32 0x8C379A000000000000000000000000000000000000000000000000000000000 DUP2 MSTORE PUSH1 0x4 ADD PUSH2 0x347 SWAP1 PUSH2 0x1241 JUMP JUMPDEST PUSH1 0x40 MLOAD DUP1 SWAP2 SUB SWAP1 REVERT JUMPDEST PUSH1 0x7 SLOAD DUP2 LT PUSH2 0x394 JUMPI PUSH1 0x40 MLOAD PUSH32 0x8C379A000000000000000000000000000000000000000000000000000000000 DUP2 MSTORE PUSH1 0x4 ADD PUSH2 0x38B SWAP1 PUSH2 0x12CF JUMP JUMPDEST PUSH1 0x40 MLOAD DUP1 SWAP2 SUB SWAP1 REVERT JUMPDEST PUSH1 0x1 PUSH0 SWAP1 SLOAD SWAP1 PUSH2 0x100 EXP SWAP1 DIV PUSH20 0xFFFFFFFFFFFFFFFFFFFFFFFFFFFFFFFFFFFFFFFF AND PUSH20 0xFFFFFFFFFFFFFFFFFFFFFFFFFFFFFFFFFFFFFFFF AND PUSH4 0x79CC6790 PUSH2 0x3D9 PUSH2 0xE5B JUMP JUMPDEST DUP6 PUSH1 0x40 MLOAD DUP4 PUSH4 0xFFFFFFFF AND PUSH1 0xE0 SHL DUP2 MSTORE PUSH1 0x4 ADD PUSH2 0x3F7 SWAP3 SWAP2 SWAP1 PUSH2 0x12ED JUMP JUMPDEST PUSH0 PUSH1 0x40 MLOAD DUP1 DUP4 SUB DUP2 PUSH0 DUP8 DUP1 EXTCODESIZE ISZERO DUP1 ISZERO PUSH2 0x40E JUMPI PUSH0 DUP1 REVERT JUMPDEST POP GAS CALL ISZERO DUP1 ISZERO PUSH2 0x420 JUMPI RETURNDATASIZE PUSH0 DUP1 RETURNDATACOPY RETURNDATASIZE PUSH0 REVERT JUMPDEST POP POP POP POP PUSH1 0x2 PUSH0 SWAP1 SLOAD SWAP1 PUSH2 0x100 EXP SWAP1 DIV PUSH20 0xFFFFFFFFFFFFFFFFFFFFFFFFFFFFFFFFFFFFFFFF AND PUSH20 0xFFFFFFFFFFFFFFFFFFFFFFFFFFFFFFFFFFFFFFFF AND PUSH4 0x40C10F19 PUSH2 0x469 PUSH2 0xE5B JUMP JUMPDEST DUP4 PUSH1 0x7 SLOAD DUP8 PUSH2 0x478 SWAP2 SWAP1 PUSH2 0x1341 JUMP JUMPDEST PUSH2 0x482 SWAP2 SWAP1 PUSH2 0x13AF JUMP JUMPDEST PUSH1 0x40 MLOAD DUP4 PUSH4 0xFFFFFFFF AND PUSH1 0xE0 SHL DUP2 MSTORE PUSH1 0x4 ADD PUSH2 0x49F SWAP3 SWAP2 SWAP1 PUSH2 0x12ED JUMP JUMPDEST PUSH0 PUSH1 0x40 MLOAD DUP1 DUP4 SUB DUP2 PUSH0 DUP8 DUP1 EXTCODESIZE ISZERO DUP1 ISZERO PUSH2 0x4B6 JUMPI PUSH0 DUP1 REVERT JUMPDEST POP GAS CALL ISZERO DUP1 ISZERO PUSH2 0x4C8 JUMPI RETURNDATASIZE PUSH0 DUP1 RETURNDATACOPY RETURNDATASIZE PUSH0 REVERT JUMPDEST POP POP POP POP POP POP POP JUMP JUMPDEST PUSH0 PUSH1 0x9 SLOAD SWAP1 POP SWAP1 JUMP JUMPDEST PUSH0 PUSH2 0x4E3 PUSH2 0xDC7 JUMP JUMPDEST SWAP1 POP PUSH1 0x8 SLOAD DUP2 GT PUSH2 0x4F4 JUMPI POP PUSH2 0x848 JUMP JUMPDEST PUSH0 PUSH1 0x7 SLOAD DUP3 PUSH2 0x503 SWAP2 SWAP1 PUSH2 0x13DF JUMP JUMPDEST SWAP1 POP PUSH0 PUSH1 0x7 SLOAD DUP3 PUSH2 0x512 PUSH2 0x8F9 JUMP JUMPDEST PUSH2 0x51C SWAP2 SWAP1 PUSH2 0x1341 JUMP JUMPDEST PUSH2 0x526 SWAP2 SWAP1 PUSH2 0x13AF JUMP JUMPDEST SWAP1 POP PUSH1 0x1 PUSH0 SWAP1 SLOAD SWAP1 PUSH2 0x100 EXP SWAP1 DIV PUSH20 0xFFFFFFFFFFFFFFFFFFFFFFFFFFFFFFFFFFFFFFFF AND PUSH20 0xFFFFFFFFFFFFFFFFFFFFFFFFFFFFFFFFFFFFFFFF AND PUSH4 0x40C10F19 ADDRESS DUP4 PUSH1 0x40 MLOAD DUP4 PUSH4 0xFFFFFFFF AND PUSH1 0xE0 SHL DUP2 MSTORE PUSH1 0x4 ADD PUSH2 0x584 SWAP3 SWAP2 SWAP1 PUSH2 0x12ED JUMP JUMPDEST PUSH0 PUSH1 0x40 MLOAD DUP1 DUP4 SUB DUP2 PUSH0 DUP8 DUP1 EXTCODESIZE ISZERO DUP1 ISZERO PUSH2 0x59B JUMPI PUSH0 DUP1 REVERT JUMPDEST POP GAS CALL ISZERO DUP1 ISZERO PUSH2 0x5AD JUMPI RETURNDATASIZE PUSH0 DUP1 RETURNDATACOPY RETURNDATASIZE PUSH0 REVERT JUMPDEST POP POP POP POP PUSH0 PUSH2 0x656 DUP3 PUSH1 0x9 SLOAD PUSH1 0x2 PUSH0 SWAP1 SLOAD SWAP1 PUSH2 0x100 EXP SWAP1 DIV PUSH20 0xFFFFFFFFFFFFFFFFFFFFFFFFFFFFFFFFFFFFFFFF AND PUSH20 0xFFFFFFFFFFFFFFFFFFFFFFFFFFFFFFFFFFFFFFFF AND PUSH4 0x18160DDD PUSH1 0x40 MLOAD DUP2 PUSH4 0xFFFFFFFF AND PUSH1 0xE0 SHL DUP2 MSTORE PUSH1 0x4 ADD PUSH1 0x20 PUSH1 0x40 MLOAD DUP1 DUP4 SUB DUP2 DUP7 GAS STATICCALL ISZERO DUP1 ISZERO PUSH2 0x623 JUMPI RETURNDATASIZE PUSH0 DUP1 RETURNDATACOPY RETURNDATASIZE PUSH0 REVERT JUMPDEST POP POP POP POP PUSH1 0x40 MLOAD RETURNDATASIZE PUSH1 0x1F NOT PUSH1 0x1F DUP3 ADD AND DUP3 ADD DUP1 PUSH1 0x40 MSTORE POP DUP2 ADD SWAP1 PUSH2 0x647 SWAP2 SWAP1 PUSH2 0x1426 JUMP JUMPDEST PUSH2 0x651 SWAP2 SWAP1 PUSH2 0x13DF JUMP JUMPDEST PUSH2 0xE62 JUMP JUMPDEST SWAP1 POP PUSH0 DUP2 GT ISZERO PUSH2 0x6B0 JUMPI PUSH1 0x64 PUSH1 0x50 DUP4 PUSH2 0x66F SWAP2 SWAP1 PUSH2 0x1341 JUMP JUMPDEST PUSH2 0x679 SWAP2 SWAP1 PUSH2 0x13AF JUMP JUMPDEST DUP2 LT PUSH2 0x69B JUMPI PUSH1 0x64 PUSH1 0x50 DUP3 PUSH2 0x68E SWAP2 SWAP1 PUSH2 0x1341 JUMP JUMPDEST PUSH2 0x698 SWAP2 SWAP1 PUSH2 0x13AF JUMP JUMPDEST SWAP1 POP JUMPDEST DUP1 PUSH1 0x9 SLOAD PUSH2 0x6A9 SWAP2 SWAP1 PUSH2 0x1451 JUMP JUMPDEST PUSH1 0x9 DUP2 SWAP1 SSTORE POP JUMPDEST DUP1 DUP3 PUSH2 0x6BC SWAP2 SWAP1 PUSH2 0x13DF JUMP JUMPDEST SWAP2 POP PUSH0 DUP3 GT ISZERO PUSH2 0x843 JUMPI PUSH1 0x1 PUSH0 SWAP1 SLOAD SWAP1 PUSH2 0x100 EXP SWAP1 DIV PUSH20 0xFFFFFFFFFFFFFFFFFFFFFFFFFFFFFFFFFFFFFFFF AND PUSH20 0xFFFFFFFFFFFFFFFFFFFFFFFFFFFFFFFFFFFFFFFF AND PUSH4 0x95EA7B3 PUSH1 0x5 PUSH0 SWAP1 SLOAD SWAP1 PUSH2 0x100 EXP SWAP1 DIV PUSH20 0xFFFFFFFFFFFFFFFFFFFFFFFFFFFFFFFFFFFFFFFF AND DUP5 PUSH1 0x40 MLOAD DUP4 PUSH4 0xFFFFFFFF AND PUSH1 0xE0 SHL DUP2 MSTORE PUSH1 0x4 ADD PUSH2 0x743 SWAP3 SWAP2 SWAP1 PUSH2 0x12ED JUMP JUMPDEST PUSH1 0x20 PUSH1 0x40 MLOAD DUP1 DUP4 SUB DUP2 PUSH0 DUP8 GAS CALL ISZERO DUP1 ISZERO PUSH2 0x75F JUMPI RETURNDATASIZE PUSH0 DUP1 RETURNDATACOPY RETURNDATASIZE PUSH0 REVERT JUMPDEST POP POP POP POP PUSH1 0x40 MLOAD RETURNDATASIZE PUSH1 0x1F NOT PUSH1 0x1F DUP3 ADD AND DUP3 ADD DUP1 PUSH1 0x40 MSTORE POP DUP2 ADD SWAP1 PUSH2 0x783 SWAP2 SWAP1 PUSH2 0x14B9 JUMP JUMPDEST POP PUSH1 0x1 PUSH0 SWAP1 SLOAD SWAP1 PUSH2 0x100 EXP SWAP1 DIV PUSH20 0xFFFFFFFFFFFFFFFFFFFFFFFFFFFFFFFFFFFFFFFF AND PUSH20 0xFFFFFFFFFFFFFFFFFFFFFFFFFFFFFFFFFFFFFFFF AND PUSH4 0xA9059CBB PUSH1 0x5 PUSH0 SWAP1 SLOAD SWAP1 PUSH2 0x100 EXP SWAP1 DIV PUSH20 0xFFFFFFFFFFFFFFFFFFFFFFFFFFFFFFFFFFFFFFFF AND DUP5 PUSH1 0x40 MLOAD DUP4 PUSH4 0xFFFFFFFF AND PUSH1 0xE0 SHL DUP2 MSTORE PUSH1 0x4 ADD PUSH2 0x801 SWAP3 SWAP2 SWAP1 PUSH2 0x12ED JUMP JUMPDEST PUSH1 0x20 PUSH1 0x40 MLOAD DUP1 DUP4 SUB DUP2 PUSH0 DUP8 GAS CALL ISZERO DUP1 ISZERO PUSH2 0x81D JUMPI RETURNDATASIZE PUSH0 DUP1 RETURNDATACOPY RETURNDATASIZE PUSH0 REVERT JUMPDEST POP POP POP POP PUSH1 0x40 MLOAD RETURNDATASIZE PUSH1 0x1F NOT PUSH1 0x1F DUP3 ADD AND DUP3 ADD DUP1 PUSH1 0x40 MSTORE POP DUP2 ADD SWAP1 PUSH2 0x841 SWAP2 SWAP1 PUSH2 0x14B9 JUMP JUMPDEST POP JUMPDEST POP POP POP POP JUMPDEST JUMP JUMPDEST PUSH1 0x5 PUSH0 SWAP1 SLOAD SWAP1 PUSH2 0x100 EXP SWAP1 DIV PUSH20 0xFFFFFFFFFFFFFFFFFFFFFFFFFFFFFFFFFFFFFFFF AND DUP2 JUMP JUMPDEST PUSH1 0x2 PUSH0 SWAP1 SLOAD SWAP1 PUSH2 0x100 EXP SWAP1 DIV PUSH20 0xFFFFFFFFFFFFFFFFFFFFFFFFFFFFFFFFFFFFFFFF AND DUP2 JUMP JUMPDEST PUSH2 0x89C PUSH2 0xE78 JUMP JUMPDEST PUSH2 0x8A5 PUSH0 PUSH2 0xEFF JUMP JUMPDEST JUMP JUMPDEST PUSH1 0x4 PUSH0 SWAP1 SLOAD SWAP1 PUSH2 0x100 EXP SWAP1 DIV PUSH20 0xFFFFFFFFFFFFFFFFFFFFFFFFFFFFFFFFFFFFFFFF AND DUP2 JUMP JUMPDEST PUSH0 DUP1 PUSH0 SWAP1 SLOAD SWAP1 PUSH2 0x100 EXP SWAP1 DIV PUSH20 0xFFFFFFFFFFFFFFFFFFFFFFFFFFFFFFFFFFFFFFFF AND SWAP1 POP SWAP1 JUMP JUMPDEST PUSH1 0x7 SLOAD DUP2 JUMP JUMPDEST PUSH0 PUSH1 0x9 SLOAD PUSH1 0x1 PUSH0 SWAP1 SLOAD SWAP1 PUSH2 0x100 EXP SWAP1 DIV PUSH20 0xFFFFFFFFFFFFFFFFFFFFFFFFFFFFFFFFFFFFFFFF AND PUSH20 0xFFFFFFFFFFFFFFFFFFFFFFFFFFFFFFFFFFFFFFFF AND PUSH4 0x18160DDD PUSH1 0x40 MLOAD DUP2 PUSH4 0xFFFFFFFF AND PUSH1 0xE0 SHL DUP2 MSTORE PUSH1 0x4 ADD PUSH1 0x20 PUSH1 0x40 MLOAD DUP1 DUP4 SUB DUP2 DUP7 GAS STATICCALL ISZERO DUP1 ISZERO PUSH2 0x967 JUMPI RETURNDATASIZE PUSH0 DUP1 RETURNDATACOPY RETURNDATASIZE PUSH0 REVERT JUMPDEST POP POP POP POP PUSH1 0x40 MLOAD RETURNDATASIZE PUSH1 0x1F NOT PUSH1 0x1F DUP3 ADD AND DUP3 ADD DUP1 PUSH1 0x40 MSTORE POP DUP2 ADD SWAP1 PUSH2 0x98B SWAP2 SWAP1 PUSH2 0x1426 JUMP JUMPDEST PUSH2 0x995 SWAP2 SWAP1 PUSH2 0x13DF JUMP JUMPDEST SWAP1 POP SWAP1 JUMP JUMPDEST PUSH1 0x1 PUSH0 SWAP1 SLOAD SWAP1 PUSH2 0x100 EXP SWAP1 DIV PUSH20 0xFFFFFFFFFFFFFFFFFFFFFFFFFFFFFFFFFFFFFFFF AND DUP2 JUMP JUMPDEST PUSH1 0x3 PUSH0 SWAP1 SLOAD SWAP1 PUSH2 0x100 EXP SWAP1 DIV PUSH20 0xFFFFFFFFFFFFFFFFFFFFFFFFFFFFFFFFFFFFFFFF AND DUP2 JUMP JUMPDEST PUSH0 DUP2 GT PUSH2 0xA26 JUMPI PUSH1 0x40 MLOAD PUSH32 0x8C379A000000000000000000000000000000000000000000000000000000000 DUP2 MSTORE PUSH1 0x4 ADD PUSH2 0xA1D SWAP1 PUSH2 0x1554 JUMP JUMPDEST PUSH1 0x40 MLOAD DUP1 SWAP2 SUB SWAP1 REVERT JUMPDEST PUSH0 PUSH2 0xA2F PUSH2 0xDC7 JUMP JUMPDEST SWAP1 POP PUSH1 0x8 SLOAD DUP2 GT PUSH2 0xA75 JUMPI PUSH1 0x40 MLOAD PUSH32 0x8C379A000000000000000000000000000000000000000000000000000000000 DUP2 MSTORE PUSH1 0x4 ADD PUSH2 0xA6C SWAP1 PUSH2 0x15E2 JUMP JUMPDEST PUSH1 0x40 MLOAD DUP1 SWAP2 SUB SWAP1 REVERT JUMPDEST DUP2 PUSH1 0x1 PUSH0 SWAP1 SLOAD SWAP1 PUSH2 0x100 EXP SWAP1 DIV PUSH20 0xFFFFFFFFFFFFFFFFFFFFFFFFFFFFFFFFFFFFFFFF AND PUSH20 0xFFFFFFFFFFFFFFFFFFFFFFFFFFFFFFFFFFFFFFFF AND PUSH4 0x70A08231 ADDRESS PUSH1 0x40 MLOAD DUP3 PUSH4 0xFFFFFFFF AND PUSH1 0xE0 SHL DUP2 MSTORE PUSH1 0x4 ADD PUSH2 0xAD0 SWAP2 SWAP1 PUSH2 0x10C0 JUMP JUMPDEST PUSH1 0x20 PUSH1 0x40 MLOAD DUP1 DUP4 SUB DUP2 DUP7 GAS STATICCALL ISZERO DUP1 ISZERO PUSH2 0xAEB JUMPI RETURNDATASIZE PUSH0 DUP1 RETURNDATACOPY RETURNDATASIZE PUSH0 REVERT JUMPDEST POP POP POP POP PUSH1 0x40 MLOAD RETURNDATASIZE PUSH1 0x1F NOT PUSH1 0x1F DUP3 ADD AND DUP3 ADD DUP1 PUSH1 0x40 MSTORE POP DUP2 ADD SWAP1 PUSH2 0xB0F SWAP2 SWAP1 PUSH2 0x1426 JUMP JUMPDEST LT ISZERO PUSH2 0xB50 JUMPI PUSH1 0x40 MLOAD PUSH32 0x8C379A000000000000000000000000000000000000000000000000000000000 DUP2 MSTORE PUSH1 0x4 ADD PUSH2 0xB47 SWAP1 PUSH2 0x1670 JUMP JUMPDEST PUSH1 0x40 MLOAD DUP1 SWAP2 SUB SWAP1 REVERT JUMPDEST PUSH2 0xB5C PUSH1 0x9 SLOAD DUP4 PUSH2 0xE62 JUMP JUMPDEST PUSH1 0x9 DUP2 SWAP1 SSTORE PUSH1 0x9 DUP2 SWAP1 SSTORE POP PUSH1 0x2 PUSH0 SWAP1 SLOAD SWAP1 PUSH2 0x100 EXP SWAP1 DIV PUSH20 0xFFFFFFFFFFFFFFFFFFFFFFFFFFFFFFFFFFFFFFFF AND PUSH20 0xFFFFFFFFFFFFFFFFFFFFFFFFFFFFFFFFFFFFFFFF AND PUSH4 0x79CC6790 PUSH2 0xBAC PUSH2 0xE5B JUMP JUMPDEST DUP5 PUSH1 0x40 MLOAD DUP4 PUSH4 0xFFFFFFFF AND PUSH1 0xE0 SHL DUP2 MSTORE PUSH1 0x4 ADD PUSH2 0xBCA SWAP3 SWAP2 SWAP1 PUSH2 0x12ED JUMP JUMPDEST PUSH0 PUSH1 0x40 MLOAD DUP1 DUP4 SUB DUP2 PUSH0 DUP8 DUP1 EXTCODESIZE ISZERO DUP1 ISZERO PUSH2 0xBE1 JUMPI PUSH0 DUP1 REVERT JUMPDEST POP GAS CALL ISZERO DUP1 ISZERO PUSH2 0xBF3 JUMPI RETURNDATASIZE PUSH0 DUP1 RETURNDATACOPY RETURNDATASIZE PUSH0 REVERT JUMPDEST POP POP POP POP PUSH1 0x1 PUSH0 SWAP1 SLOAD SWAP1 PUSH2 0x100 EXP SWAP1 DIV PUSH20 0xFFFFFFFFFFFFFFFFFFFFFFFFFFFFFFFFFFFFFFFF AND PUSH20 0xFFFFFFFFFFFFFFFFFFFFFFFFFFFFFFFFFFFFFFFF AND PUSH4 0x95EA7B3 PUSH2 0xC3C PUSH2 0xE5B JUMP JUMPDEST DUP5 PUSH1 0x40 MLOAD DUP4 PUSH4 0xFFFFFFFF AND PUSH1 0xE0 SHL DUP2 MSTORE PUSH1 0x4 ADD PUSH2 0xC5A SWAP3 SWAP2 SWAP1 PUSH2 0x12ED JUMP JUMPDEST PUSH1 0x20 PUSH1 0x40 MLOAD DUP1 DUP4 SUB DUP2 PUSH0 DUP8 GAS CALL ISZERO DUP1 ISZERO PUSH2 0xC76 JUMPI RETURNDATASIZE PUSH0 DUP1 RETURNDATACOPY RETURNDATASIZE PUSH0 REVERT JUMPDEST POP POP POP POP PUSH1 0x40 MLOAD RETURNDATASIZE PUSH1 0x1F NOT PUSH1 0x1F DUP3 ADD AND DUP3 ADD DUP1 PUSH1 0x40 MSTORE POP DUP2 ADD SWAP1 PUSH2 0xC9A SWAP2 SWAP1 PUSH2 0x14B9 JUMP JUMPDEST POP PUSH1 0x1 PUSH0 SWAP1 SLOAD SWAP1 PUSH2 0x100 EXP SWAP1 DIV PUSH20 0xFFFFFFFFFFFFFFFFFFFFFFFFFFFFFFFFFFFFFFFF AND PUSH20 0xFFFFFFFFFFFFFFFFFFFFFFFFFFFFFFFFFFFFFFFF AND PUSH4 0xA9059CBB PUSH2 0xCE0 PUSH2 0xE5B JUMP JUMPDEST DUP5 PUSH1 0x40 MLOAD DUP4 PUSH4 0xFFFFFFFF AND PUSH1 0xE0 SHL DUP2 MSTORE PUSH1 0x4 ADD PUSH2 0xCFE SWAP3 SWAP2 SWAP1 PUSH2 0x12ED JUMP JUMPDEST PUSH1 0x20 PUSH1 0x40 MLOAD DUP1 DUP4 SUB DUP2 PUSH0 DUP8 GAS CALL ISZERO DUP1 ISZERO PUSH2 0xD1A JUMPI RETURNDATASIZE PUSH0 DUP1 RETURNDATACOPY RETURNDATASIZE PUSH0 REVERT JUMPDEST POP POP POP POP PUSH1 0x40 MLOAD RETURNDATASIZE PUSH1 0x1F NOT PUSH1 0x1F DUP3 ADD AND DUP3 ADD DUP1 PUSH1 0x40 MSTORE POP DUP2 ADD SWAP1 PUSH2 0xD3E SWAP2 SWAP1 PUSH2 0x14B9 JUMP JUMPDEST POP POP POP JUMP JUMPDEST PUSH2 0xD4B PUSH2 0xE78 JUMP JUMPDEST PUSH0 PUSH20 0xFFFFFFFFFFFFFFFFFFFFFFFFFFFFFFFFFFFFFFFF AND DUP2 PUSH20 0xFFFFFFFFFFFFFFFFFFFFFFFFFFFFFFFFFFFFFFFF AND SUB PUSH2 0xDBB JUMPI PUSH0 PUSH1 0x40 MLOAD PUSH32 0x1E4FBDF700000000000000000000000000000000000000000000000000000000 DUP2 MSTORE PUSH1 0x4 ADD PUSH2 0xDB2 SWAP2 SWAP1 PUSH2 0x10C0 JUMP JUMPDEST PUSH1 0x40 MLOAD DUP1 SWAP2 SUB SWAP1 REVERT JUMPDEST PUSH2 0xDC4 DUP2 PUSH2 0xEFF JUMP JUMPDEST POP JUMP JUMPDEST PUSH0 PUSH1 0x4 PUSH0 SWAP1 SLOAD SWAP1 PUSH2 0x100 EXP SWAP1 DIV PUSH20 0xFFFFFFFFFFFFFFFFFFFFFFFFFFFFFFFFFFFFFFFF AND PUSH20 0xFFFFFFFFFFFFFFFFFFFFFFFFFFFFFFFFFFFFFFFF AND PUSH4 0x98D5FDCA PUSH1 0x40 MLOAD DUP2 PUSH4 0xFFFFFFFF AND PUSH1 0xE0 SHL DUP2 MSTORE PUSH1 0x4 ADD PUSH1 0x20 PUSH1 0x40 MLOAD DUP1 DUP4 SUB DUP2 DUP7 GAS STATICCALL ISZERO DUP1 ISZERO PUSH2 0xE32 JUMPI RETURNDATASIZE PUSH0 DUP1 RETURNDATACOPY RETURNDATASIZE PUSH0 REVERT JUMPDEST POP POP POP POP PUSH1 0x40 MLOAD RETURNDATASIZE PUSH1 0x1F NOT PUSH1 0x1F DUP3 ADD AND DUP3 ADD DUP1 PUSH1 0x40 MSTORE POP DUP2 ADD SWAP1 PUSH2 0xE56 SWAP2 SWAP1 PUSH2 0x1426 JUMP JUMPDEST SWAP1 POP SWAP1 JUMP JUMPDEST PUSH0 CALLER SWAP1 POP SWAP1 JUMP JUMPDEST PUSH0 PUSH2 0xE70 DUP3 DUP5 LT DUP5 DUP5 PUSH2 0xFC0 JUMP JUMPDEST SWAP1 POP SWAP3 SWAP2 POP POP JUMP JUMPDEST PUSH2 0xE80 PUSH2 0xE5B JUMP JUMPDEST PUSH20 0xFFFFFFFFFFFFFFFFFFFFFFFFFFFFFFFFFFFFFFFF AND PUSH2 0xE9E PUSH2 0x8CC JUMP JUMPDEST PUSH20 0xFFFFFFFFFFFFFFFFFFFFFFFFFFFFFFFFFFFFFFFF AND EQ PUSH2 0xEFD JUMPI PUSH2 0xEC1 PUSH2 0xE5B JUMP JUMPDEST PUSH1 0x40 MLOAD PUSH32 0x118CDAA700000000000000000000000000000000000000000000000000000000 DUP2 MSTORE PUSH1 0x4 ADD PUSH2 0xEF4 SWAP2 SWAP1 PUSH2 0x10C0 JUMP JUMPDEST PUSH1 0x40 MLOAD DUP1 SWAP2 SUB SWAP1 REVERT JUMPDEST JUMP JUMPDEST PUSH0 DUP1 PUSH0 SWAP1 SLOAD SWAP1 PUSH2 0x100 EXP SWAP1 DIV PUSH20 0xFFFFFFFFFFFFFFFFFFFFFFFFFFFFFFFFFFFFFFFF AND SWAP1 POP DUP2 PUSH0 DUP1 PUSH2 0x100 EXP DUP2 SLOAD DUP2 PUSH20 0xFFFFFFFFFFFFFFFFFFFFFFFFFFFFFFFFFFFFFFFF MUL NOT AND SWAP1 DUP4 PUSH20 0xFFFFFFFFFFFFFFFFFFFFFFFFFFFFFFFFFFFFFFFF AND MUL OR SWAP1 SSTORE POP DUP2 PUSH20 0xFFFFFFFFFFFFFFFFFFFFFFFFFFFFFFFFFFFFFFFF AND DUP2 PUSH20 0xFFFFFFFFFFFFFFFFFFFFFFFFFFFFFFFFFFFFFFFF AND PUSH32 0x8BE0079C531659141344CD1FD0A4F28419497F9722A3DAAFE3B4186F6B6457E0 PUSH1 0x40 MLOAD PUSH1 0x40 MLOAD DUP1 SWAP2 SUB SWAP1 LOG3 POP POP JUMP JUMPDEST PUSH0 PUSH2 0xFCA DUP5 PUSH2 0xFD9 JUMP JUMPDEST DUP3 DUP5 XOR MUL DUP3 XOR SWAP1 POP SWAP4 SWAP3 POP POP POP JUMP JUMPDEST PUSH0 DUP2 ISZERO ISZERO SWAP1 POP SWAP2 SWAP1 POP JUMP JUMPDEST PUSH0 DUP2 SWAP1 POP SWAP2 SWAP1 POP JUMP JUMPDEST PUSH2 0xFF6 DUP2 PUSH2 0xFE4 JUMP JUMPDEST DUP3 MSTORE POP POP JUMP JUMPDEST PUSH0 PUSH1 0x20 DUP3 ADD SWAP1 POP PUSH2 0x100F PUSH0 DUP4 ADD DUP5 PUSH2 0xFED JUMP JUMPDEST SWAP3 SWAP2 POP POP JUMP JUMPDEST PUSH0 DUP1 REVERT JUMPDEST PUSH2 0x1022 DUP2 PUSH2 0xFE4 JUMP JUMPDEST DUP2 EQ PUSH2 0x102C JUMPI PUSH0 DUP1 REVERT JUMPDEST POP JUMP JUMPDEST PUSH0 DUP2 CALLDATALOAD SWAP1 POP PUSH2 0x103D DUP2 PUSH2 0x1019 JUMP JUMPDEST SWAP3 SWAP2 POP POP JUMP JUMPDEST PUSH0 DUP1 PUSH1 0x40 DUP4 DUP6 SUB SLT ISZERO PUSH2 0x1059 JUMPI PUSH2 0x1058 PUSH2 0x1015 JUMP JUMPDEST JUMPDEST PUSH0 PUSH2 0x1066 DUP6 DUP3 DUP7 ADD PUSH2 0x102F JUMP JUMPDEST SWAP3 POP POP PUSH1 0x20 PUSH2 0x1077 DUP6 DUP3 DUP7 ADD PUSH2 0x102F JUMP JUMPDEST SWAP2 POP POP SWAP3 POP SWAP3 SWAP1 POP JUMP JUMPDEST PUSH0 PUSH20 0xFFFFFFFFFFFFFFFFFFFFFFFFFFFFFFFFFFFFFFFF DUP3 AND SWAP1 POP SWAP2 SWAP1 POP JUMP JUMPDEST PUSH0 PUSH2 0x10AA DUP3 PUSH2 0x1081 JUMP JUMPDEST SWAP1 POP SWAP2 SWAP1 POP JUMP JUMPDEST PUSH2 0x10BA DUP2 PUSH2 0x10A0 JUMP JUMPDEST DUP3 MSTORE POP POP JUMP JUMPDEST PUSH0 PUSH1 0x20 DUP3 ADD SWAP1 POP PUSH2 0x10D3 PUSH0 DUP4 ADD DUP5 PUSH2 0x10B1 JUMP JUMPDEST SWAP3 SWAP2 POP POP JUMP JUMPDEST PUSH0 PUSH1 0x20 DUP3 DUP5 SUB SLT ISZERO PUSH2 0x10EE JUMPI PUSH2 0x10ED PUSH2 0x1015 JUMP JUMPDEST JUMPDEST PUSH0 PUSH2 0x10FB DUP5 DUP3 DUP6 ADD PUSH2 0x102F JUMP JUMPDEST SWAP2 POP POP SWAP3 SWAP2 POP POP JUMP JUMPDEST PUSH2 0x110D DUP2 PUSH2 0x10A0 JUMP JUMPDEST DUP2 EQ PUSH2 0x1117 JUMPI PUSH0 DUP1 REVERT JUMPDEST POP JUMP JUMPDEST PUSH0 DUP2 CALLDATALOAD SWAP1 POP PUSH2 0x1128 DUP2 PUSH2 0x1104 JUMP JUMPDEST SWAP3 SWAP2 POP POP JUMP JUMPDEST PUSH0 PUSH1 0x20 DUP3 DUP5 SUB SLT ISZERO PUSH2 0x1143 JUMPI PUSH2 0x1142 PUSH2 0x1015 JUMP JUMPDEST JUMPDEST PUSH0 PUSH2 0x1150 DUP5 DUP3 DUP6 ADD PUSH2 0x111A JUMP JUMPDEST SWAP2 POP POP SWAP3 SWAP2 POP POP JUMP JUMPDEST PUSH0 DUP3 DUP3 MSTORE PUSH1 0x20 DUP3 ADD SWAP1 POP SWAP3 SWAP2 POP POP JUMP JUMPDEST PUSH32 0x54726561737572793A2063616E6E6F7420707572636861736520626F6E647320 PUSH0 DUP3 ADD MSTORE PUSH32 0x77697468207A65726F20616D6F756E7400000000000000000000000000000000 PUSH1 0x20 DUP3 ADD MSTORE POP JUMP JUMPDEST PUSH0 PUSH2 0x11C3 PUSH1 0x30 DUP4 PUSH2 0x1159 JUMP JUMPDEST SWAP2 POP PUSH2 0x11CE DUP3 PUSH2 0x1169 JUMP JUMPDEST PUSH1 0x40 DUP3 ADD SWAP1 POP SWAP2 SWAP1 POP JUMP JUMPDEST PUSH0 PUSH1 0x20 DUP3 ADD SWAP1 POP DUP2 DUP2 SUB PUSH0 DUP4 ADD MSTORE PUSH2 0x11F0 DUP2 PUSH2 0x11B7 JUMP JUMPDEST SWAP1 POP SWAP2 SWAP1 POP JUMP JUMPDEST PUSH32 0x54726561737572793A2063617368207072696365206D6F766564000000000000 PUSH0 DUP3 ADD MSTORE POP JUMP JUMPDEST PUSH0 PUSH2 0x122B PUSH1 0x1A DUP4 PUSH2 0x1159 JUMP JUMPDEST SWAP2 POP PUSH2 0x1236 DUP3 PUSH2 0x11F7 JUMP JUMPDEST PUSH1 0x20 DUP3 ADD SWAP1 POP SWAP2 SWAP1 POP JUMP JUMPDEST PUSH0 PUSH1 0x20 DUP3 ADD SWAP1 POP DUP2 DUP2 SUB PUSH0 DUP4 ADD MSTORE PUSH2 0x1258 DUP2 PUSH2 0x121F JUMP JUMPDEST SWAP1 POP SWAP2 SWAP1 POP JUMP JUMPDEST PUSH32 0x54726561737572793A2063617368207072696365206973206E6F742062656C6F PUSH0 DUP3 ADD MSTORE PUSH32 0x7720243100000000000000000000000000000000000000000000000000000000 PUSH1 0x20 DUP3 ADD MSTORE POP JUMP JUMPDEST PUSH0 PUSH2 0x12B9 PUSH1 0x24 DUP4 PUSH2 0x1159 JUMP JUMPDEST SWAP2 POP PUSH2 0x12C4 DUP3 PUSH2 0x125F JUMP JUMPDEST PUSH1 0x40 DUP3 ADD SWAP1 POP SWAP2 SWAP1 POP JUMP JUMPDEST PUSH0 PUSH1 0x20 DUP3 ADD SWAP1 POP DUP2 DUP2 SUB PUSH0 DUP4 ADD MSTORE PUSH2 0x12E6 DUP2 PUSH2 0x12AD JUMP JUMPDEST SWAP1 POP SWAP2 SWAP1 POP JUMP JUMPDEST PUSH0 PUSH1 0x40 DUP3 ADD SWAP1 POP PUSH2 0x1300 PUSH0 DUP4 ADD DUP6 PUSH2 0x10B1 JUMP JUMPDEST PUSH2 0x130D PUSH1 0x20 DUP4 ADD DUP5 PUSH2 0xFED JUMP JUMPDEST SWAP4 SWAP3 POP POP POP JUMP JUMPDEST PUSH32 0x4E487B7100000000000000000000000000000000000000000000000000000000 PUSH0 MSTORE PUSH1 0x11 PUSH1 0x4 MSTORE PUSH1 0x24 PUSH0 REVERT JUMPDEST PUSH0 PUSH2 0x134B DUP3 PUSH2 0xFE4 JUMP JUMPDEST SWAP2 POP PUSH2 0x1356 DUP4 PUSH2 0xFE4 JUMP JUMPDEST SWAP3 POP DUP3 DUP3 MUL PUSH2 0x1364 DUP2 PUSH2 0xFE4 JUMP JUMPDEST SWAP2 POP DUP3 DUP3 DIV DUP5 EQ DUP4 ISZERO OR PUSH2 0x137B JUMPI PUSH2 0x137A PUSH2 0x1314 JUMP JUMPDEST JUMPDEST POP SWAP3 SWAP2 POP POP JUMP JUMPDEST PUSH32 0x4E487B7100000000000000000000000000000000000000000000000000000000 PUSH0 MSTORE PUSH1 0x12 PUSH1 0x4 MSTORE PUSH1 0x24 PUSH0 REVERT JUMPDEST PUSH0 PUSH2 0x13B9 DUP3 PUSH2 0xFE4 JUMP JUMPDEST SWAP2 POP PUSH2 0x13C4 DUP4 PUSH2 0xFE4 JUMP JUMPDEST SWAP3 POP DUP3 PUSH2 0x13D4 JUMPI PUSH2 0x13D3 PUSH2 0x1382 JUMP JUMPDEST JUMPDEST DUP3 DUP3 DIV SWAP1 POP SWAP3 SWAP2 POP POP JUMP JUMPDEST PUSH0 PUSH2 0x13E9 DUP3 PUSH2 0xFE4 JUMP JUMPDEST SWAP2 POP PUSH2 0x13F4 DUP4 PUSH2 0xFE4 JUMP JUMPDEST SWAP3 POP DUP3 DUP3 SUB SWAP1 POP DUP2 DUP2 GT ISZERO PUSH2 0x140C JUMPI PUSH2 0x140B PUSH2 0x1314 JUMP JUMPDEST JUMPDEST SWAP3 SWAP2 POP POP JUMP JUMPDEST PUSH0 DUP2 MLOAD SWAP1 POP PUSH2 0x1420 DUP2 PUSH2 0x1019 JUMP JUMPDEST SWAP3 SWAP2 POP POP JUMP JUMPDEST PUSH0 PUSH1 0x20 DUP3 DUP5 SUB SLT ISZERO PUSH2 0x143B JUMPI PUSH2 0x143A PUSH2 0x1015 JUMP JUMPDEST JUMPDEST PUSH0 PUSH2 0x1448 DUP5 DUP3 DUP6 ADD PUSH2 0x1412 JUMP JUMPDEST SWAP2 POP POP SWAP3 SWAP2 POP POP JUMP JUMPDEST PUSH0 PUSH2 0x145B DUP3 PUSH2 0xFE4 JUMP JUMPDEST SWAP2 POP PUSH2 0x1466 DUP4 PUSH2 0xFE4 JUMP JUMPDEST SWAP3 POP DUP3 DUP3 ADD SWAP1 POP DUP1 DUP3 GT ISZERO PUSH2 0x147E JUMPI PUSH2 0x147D PUSH2 0x1314 JUMP JUMPDEST JUMPDEST SWAP3 SWAP2 POP POP JUMP JUMPDEST PUSH0 DUP2 ISZERO ISZERO SWAP1 POP SWAP2 SWAP1 POP JUMP JUMPDEST PUSH2 0x1498 DUP2 PUSH2 0x1484 JUMP JUMPDEST DUP2 EQ PUSH2 0x14A2 JUMPI PUSH0 DUP1 REVERT JUMPDEST POP JUMP JUMPDEST PUSH0 DUP2 MLOAD SWAP1 POP PUSH2 0x14B3 DUP2 PUSH2 0x148F JUMP JUMPDEST SWAP3 SWAP2 POP POP JUMP JUMPDEST PUSH0 PUSH1 0x20 DUP3 DUP5 SUB SLT ISZERO PUSH2 0x14CE JUMPI PUSH2 0x14CD PUSH2 0x1015 JUMP JUMPDEST JUMPDEST PUSH0 PUSH2 0x14DB DUP5 DUP3 DUP6 ADD PUSH2 0x14A5 JUMP JUMPDEST SWAP2 POP POP SWAP3 SWAP2 POP POP JUMP JUMPDEST PUSH32 0x54726561737572793A2063616E6E6F742072656465656D20626F6E6473207769 PUSH0 DUP3 ADD MSTORE PUSH32 0x7468207A65726F20616D6F756E74000000000000000000000000000000000000 PUSH1 0x20 DUP3 ADD MSTORE POP JUMP JUMPDEST PUSH0 PUSH2 0x153E PUSH1 0x2E DUP4 PUSH2 0x1159 JUMP JUMPDEST SWAP2 POP PUSH2 0x1549 DUP3 PUSH2 0x14E4 JUMP JUMPDEST PUSH1 0x40 DUP3 ADD SWAP1 POP SWAP2 SWAP1 POP JUMP JUMPDEST PUSH0 PUSH1 0x20 DUP3 ADD SWAP1 POP DUP2 DUP2 SUB PUSH0 DUP4 ADD MSTORE PUSH2 0x156B DUP2 PUSH2 0x1532 JUMP JUMPDEST SWAP1 POP SWAP2 SWAP1 POP JUMP JUMPDEST PUSH32 0x54726561737572793A20636173685072696365206E6F7420656C696769626C65 PUSH0 DUP3 ADD MSTORE PUSH32 0x20666F7220626F6E642070757263686173650000000000000000000000000000 PUSH1 0x20 DUP3 ADD MSTORE POP JUMP JUMPDEST PUSH0 PUSH2 0x15CC PUSH1 0x32 DUP4 PUSH2 0x1159 JUMP JUMPDEST SWAP2 POP PUSH2 0x15D7 DUP3 PUSH2 0x1572 JUMP JUMPDEST PUSH1 0x40 DUP3 ADD SWAP1 POP SWAP2 SWAP1 POP JUMP JUMPDEST PUSH0 PUSH1 0x20 DUP3 ADD SWAP1 POP DUP2 DUP2 SUB PUSH0 DUP4 ADD MSTORE PUSH2 0x15F9 DUP2 PUSH2 0x15C0 JUMP JUMPDEST SWAP1 POP SWAP2 SWAP1 POP JUMP JUMPDEST PUSH32 0x54726561737572793A20747265617375727920686173206E6F206D6F72652062 PUSH0 DUP3 ADD MSTORE PUSH32 0x7564676574000000000000000000000000000000000000000000000000000000 PUSH1 0x20 DUP3 ADD MSTORE POP JUMP JUMPDEST PUSH0 PUSH2 0x165A PUSH1 0x25 DUP4 PUSH2 0x1159 JUMP JUMPDEST SWAP2 POP PUSH2 0x1665 DUP3 PUSH2 0x1600 JUMP JUMPDEST PUSH1 0x40 DUP3 ADD SWAP1 POP SWAP2 SWAP1 POP JUMP JUMPDEST PUSH0 PUSH1 0x20 DUP3 ADD SWAP1 POP DUP2 DUP2 SUB PUSH0 DUP4 ADD MSTORE PUSH2 0x1687 DUP2 PUSH2 0x164E JUMP JUMPDEST SWAP1 POP SWAP2 SWAP1 POP JUMP INVALID LOG2 PUSH5 0x6970667358 0x22 SLT KECCAK256 0x25 CREATE 0xAE 0xDC 0xFC 0xAC 0xA8 PUSH13 0x2F09A0FEB3A10211C27549B5F9 OR 0xB1 PUSH13 0x53047B95BF38536264736F6C63 NUMBER STOP ADDMOD BYTE STOP CALLER "
		},
		"gasEstimates": {
			"creation": {
				"codeDepositCost": "1165600",
				"executionCost": "infinite",
				"totalCost": "infinite"
			},
			"external": {
				"allocateSeigniorage()": "infinite",
				"boardroom()": "2553",
				"bond()": "2575",
				"buyBonds(uint256,uint256)": "infinite",
				"cash()": "2530",
				"circulatingSupply()": "infinite",
				"decimals()": "2471",
				"getReserve()": "2522",
				"one()": "2492",
				"oracle()": "2531",
				"owner()": "2560",
				"priceCeiling()": "2449",
				"redeemBonds(uint256)": "infinite",
				"renounceOwnership()": "infinite",
				"share()": "2552",
				"transferOwnership(address)": "infinite"
			},
			"internal": {
				"_getCashPrice()": "infinite"
			}
		},
		"methodIdentifiers": {
			"allocateSeigniorage()": "5b756179",
			"boardroom()": "5e02c51e",
			"bond()": "64c9ec6f",
			"buyBonds(uint256,uint256)": "54f04a11",
			"cash()": "961be391",
			"circulatingSupply()": "9358928b",
			"decimals()": "313ce567",
			"getReserve()": "59bf5d39",
			"one()": "901717d1",
			"oracle()": "7dc0d1d0",
			"owner()": "8da5cb5b",
			"priceCeiling()": "2d3b5a86",
			"redeemBonds(uint256)": "e189ce14",
			"renounceOwnership()": "715018a6",
			"share()": "a8d5fd65",
			"transferOwnership(address)": "f2fde38b"
		}
	},
	"abi": [
		{
			"inputs": [
				{
					"internalType": "address",
					"name": "_cash",
					"type": "address"
				},
				{
					"internalType": "address",
					"name": "_bond",
					"type": "address"
				},
				{
					"internalType": "address",
					"name": "_share",
					"type": "address"
				},
				{
					"internalType": "address",
					"name": "_oracle",
					"type": "address"
				},
				{
					"internalType": "address",
					"name": "_boardroom",
					"type": "address"
				}
			],
			"stateMutability": "nonpayable",
			"type": "constructor"
		},
		{
			"inputs": [
				{
					"internalType": "address",
					"name": "owner",
					"type": "address"
				}
			],
			"name": "OwnableInvalidOwner",
			"type": "error"
		},
		{
			"inputs": [
				{
					"internalType": "address",
					"name": "account",
					"type": "address"
				}
			],
			"name": "OwnableUnauthorizedAccount",
			"type": "error"
		},
		{
			"anonymous": false,
			"inputs": [
				{
					"indexed": true,
					"internalType": "address",
					"name": "previousOwner",
					"type": "address"
				},
				{
					"indexed": true,
					"internalType": "address",
					"name": "newOwner",
					"type": "address"
				}
			],
			"name": "OwnershipTransferred",
			"type": "event"
		},
		{
			"inputs": [],
			"name": "allocateSeigniorage",
			"outputs": [],
			"stateMutability": "nonpayable",
			"type": "function"
		},
		{
			"inputs": [],
			"name": "boardroom",
			"outputs": [
				{
					"internalType": "address",
					"name": "",
					"type": "address"
				}
			],
			"stateMutability": "view",
			"type": "function"
		},
		{
			"inputs": [],
			"name": "bond",
			"outputs": [
				{
					"internalType": "address",
					"name": "",
					"type": "address"
				}
			],
			"stateMutability": "view",
			"type": "function"
		},
		{
			"inputs": [
				{
					"internalType": "uint256",
					"name": "amount",
					"type": "uint256"
				},
				{
					"internalType": "uint256",
					"name": "targetPrice",
					"type": "uint256"
				}
			],
			"name": "buyBonds",
			"outputs": [],
			"stateMutability": "nonpayable",
			"type": "function"
		},
		{
			"inputs": [],
			"name": "cash",
			"outputs": [
				{
					"internalType": "address",
					"name": "",
					"type": "address"
				}
			],
			"stateMutability": "view",
			"type": "function"
		},
		{
			"inputs": [],
			"name": "circulatingSupply",
			"outputs": [
				{
					"internalType": "uint256",
					"name": "",
					"type": "uint256"
				}
			],
			"stateMutability": "view",
			"type": "function"
		},
		{
			"inputs": [],
			"name": "decimals",
			"outputs": [
				{
					"internalType": "uint256",
					"name": "",
					"type": "uint256"
				}
			],
			"stateMutability": "view",
			"type": "function"
		},
		{
			"inputs": [],
			"name": "getReserve",
			"outputs": [
				{
					"internalType": "uint256",
					"name": "",
					"type": "uint256"
				}
			],
			"stateMutability": "view",
			"type": "function"
		},
		{
			"inputs": [],
			"name": "one",
			"outputs": [
				{
					"internalType": "uint256",
					"name": "",
					"type": "uint256"
				}
			],
			"stateMutability": "view",
			"type": "function"
		},
		{
			"inputs": [],
			"name": "oracle",
			"outputs": [
				{
					"internalType": "address",
					"name": "",
					"type": "address"
				}
			],
			"stateMutability": "view",
			"type": "function"
		},
		{
			"inputs": [],
			"name": "owner",
			"outputs": [
				{
					"internalType": "address",
					"name": "",
					"type": "address"
				}
			],
			"stateMutability": "view",
			"type": "function"
		},
		{
			"inputs": [],
			"name": "priceCeiling",
			"outputs": [
				{
					"internalType": "uint256",
					"name": "",
					"type": "uint256"
				}
			],
			"stateMutability": "view",
			"type": "function"
		},
		{
			"inputs": [
				{
					"internalType": "uint256",
					"name": "amount",
					"type": "uint256"
				}
			],
			"name": "redeemBonds",
			"outputs": [],
			"stateMutability": "nonpayable",
			"type": "function"
		},
		{
			"inputs": [],
			"name": "renounceOwnership",
			"outputs": [],
			"stateMutability": "nonpayable",
			"type": "function"
		},
		{
			"inputs": [],
			"name": "share",
			"outputs": [
				{
					"internalType": "address",
					"name": "",
					"type": "address"
				}
			],
			"stateMutability": "view",
			"type": "function"
		},
		{
			"inputs": [
				{
					"internalType": "address",
					"name": "newOwner",
					"type": "address"
				}
			],
			"name": "transferOwnership",
			"outputs": [],
			"stateMutability": "nonpayable",
			"type": "function"
		}
	]
}